{"abi":[{"type":"constructor","inputs":[{"name":"_invoiceTokenContractAddress","type":"address","internalType":"address"}],"stateMutability":"nonpayable"},{"type":"fallback","stateMutability":"payable"},{"type":"receive","stateMutability":"payable"},{"type":"function","name":"buyTokens","inputs":[{"name":"_invoiceId","type":"uint256","internalType":"uint256"},{"name":"_tokenAmount","type":"uint256","internalType":"uint256"}],"outputs":[],"stateMutability":"payable"},{"type":"function","name":"cancelListing","inputs":[{"name":"_invoiceId","type":"uint256","internalType":"uint256"}],"outputs":[],"stateMutability":"nonpayable"},{"type":"function","name":"createInvoiceListing","inputs":[{"name":"_invoiceId","type":"uint256","internalType":"uint256"},{"name":"_totalInvoiceAmount","type":"uint256","internalType":"uint256"},{"name":"_tokenPrice","type":"uint256","internalType":"uint256"},{"name":"_tokensTotal","type":"uint256","internalType":"uint256"},{"name":"_maturityDate","type":"uint256","internalType":"uint256"},{"name":"_minimumRiskScore","type":"uint256","internalType":"uint256"}],"outputs":[],"stateMutability":"payable"},{"type":"function","name":"invoiceTokenContract","inputs":[],"outputs":[{"name":"","type":"address","internalType":"contract IInvoiceFinancingToken"}],"stateMutability":"view"},{"type":"function","name":"listings","inputs":[{"name":"","type":"uint256","internalType":"uint256"}],"outputs":[{"name":"invoiceId","type":"uint256","internalType":"uint256"},{"name":"seller","type":"address","internalType":"address"},{"name":"totalAmount","type":"uint256","internalType":"uint256"},{"name":"tokenPrice","type":"uint256","internalType":"uint256"},{"name":"tokensTotal","type":"uint256","internalType":"uint256"},{"name":"maturityDate","type":"uint256","internalType":"uint256"},{"name":"isActive","type":"bool","internalType":"bool"},{"name":"minimumRiskScore","type":"uint256","internalType":"uint256"}],"stateMutability":"view"},{"type":"function","name":"owner","inputs":[],"outputs":[{"name":"","type":"address","internalType":"address"}],"stateMutability":"view"},{"type":"function","name":"renounceOwnership","inputs":[],"outputs":[],"stateMutability":"nonpayable"},{"type":"function","name":"transferOwnership","inputs":[{"name":"newOwner","type":"address","internalType":"address"}],"outputs":[],"stateMutability":"nonpayable"},{"type":"function","name":"updateListingPrice","inputs":[{"name":"_invoiceId","type":"uint256","internalType":"uint256"},{"name":"_newTokenPrice","type":"uint256","internalType":"uint256"}],"outputs":[],"stateMutability":"nonpayable"},{"type":"event","name":"ListingCancelled","inputs":[{"name":"invoiceId","type":"uint256","indexed":true,"internalType":"uint256"}],"anonymous":false},{"type":"event","name":"ListingCreated","inputs":[{"name":"invoiceId","type":"uint256","indexed":true,"internalType":"uint256"},{"name":"seller","type":"address","indexed":true,"internalType":"address"},{"name":"totalAmount","type":"uint256","indexed":false,"internalType":"uint256"},{"name":"tokenPrice","type":"uint256","indexed":false,"internalType":"uint256"}],"anonymous":false},{"type":"event","name":"ListingUpdated","inputs":[{"name":"invoiceId","type":"uint256","indexed":true,"internalType":"uint256"},{"name":"newTokenPrice","type":"uint256","indexed":false,"internalType":"uint256"}],"anonymous":false},{"type":"event","name":"OwnershipTransferred","inputs":[{"name":"previousOwner","type":"address","indexed":true,"internalType":"address"},{"name":"newOwner","type":"address","indexed":true,"internalType":"address"}],"anonymous":false},{"type":"error","name":"OwnableInvalidOwner","inputs":[{"name":"owner","type":"address","internalType":"address"}]},{"type":"error","name":"OwnableUnauthorizedAccount","inputs":[{"name":"account","type":"address","internalType":"address"}]},{"type":"error","name":"ReentrancyGuardReentrantCall","inputs":[]}],"bytecode":{"object":"0x608060405234801561000f575f5ffd5b5060405161053c38038061053c83398101604081905261002e916100d5565b338061005357604051631e4fbdf760e01b81525f600482015260240160405180910390fd5b61005c81610086565b5060018055600280546001600160a01b0319166001600160a01b0392909216919091179055610102565b5f80546001600160a01b038381166001600160a01b0319831681178455604051919092169283917f8be0079c531659141344cd1fd0a4f28419497f9722a3daafe3b4186f6b6457e09190a35050565b5f602082840312156100e5575f5ffd5b81516001600160a01b03811681146100fb575f5ffd5b9392505050565b61042d8061010f5f395ff3fe608060405260043610610082575f3560e01c80638da5cb5b116100555780638da5cb5b146100dd578063b86a4c7314610112578063c460494314610131578063de74e57b1461014b578063f2fde38b146101fc57005b8063305a67a81461008457806363084859146100a3578063715018a6146100b65780637975ce28146100ca575b005b34801561008f575f5ffd5b5061008261009e366004610354565b61021b565b6100826100b136600461036b565b61022f565b3480156100c1575f5ffd5b50610082610248565b6100826100d83660046103aa565b61025b565b3480156100e8575f5ffd5b505f546001600160a01b03165b6040516001600160a01b0390911681526020015b60405180910390f35b34801561011d575f5ffd5b506002546100f5906001600160a01b031681565b34801561013c575f5ffd5b506100826100d83660046103aa565b348015610156575f5ffd5b506101b7610165366004610354565b600360208190525f91825260409091208054600182015460028301549383015460048401546005850154600686015460079096015494966001600160a01b0390941695939492939192909160ff169088565b604080519889526001600160a01b039097166020890152958701949094526060860192909252608085015260a0840152151560c083015260e082015261010001610109565b348015610207575f5ffd5b506100826102163660046103ca565b610270565b6102236102af565b61022c60018055565b50565b6102376102af565b61024060018055565b505050505050565b6102506102d9565b6102595f610305565b565b6102636102af565b61026c60018055565b5050565b6102786102d9565b6001600160a01b0381166102a657604051631e4fbdf760e01b81525f60048201526024015b60405180910390fd5b61022c81610305565b6002600154036102d257604051633ee5aeb560e01b815260040160405180910390fd5b6002600155565b5f546001600160a01b031633146102595760405163118cdaa760e01b815233600482015260240161029d565b5f80546001600160a01b038381166001600160a01b0319831681178455604051919092169283917f8be0079c531659141344cd1fd0a4f28419497f9722a3daafe3b4186f6b6457e09190a35050565b5f60208284031215610364575f5ffd5b5035919050565b5f5f5f5f5f5f60c08789031215610380575f5ffd5b505084359660208601359650604086013595606081013595506080810135945060a0013592509050565b5f5f604083850312156103bb575f5ffd5b50508035926020909101359150565b5f602082840312156103da575f5ffd5b81356001600160a01b03811681146103f0575f5ffd5b939250505056fea2646970667358221220cf19b318e78c513b3837f3f599425e27b69df3b51dbb63378f28e72f162041d564736f6c634300081c0033","linkReferences":{}},"methodIdentifiers":{"buyTokens(uint256,uint256)":"7975ce28","cancelListing(uint256)":"305a67a8","createInvoiceListing(uint256,uint256,uint256,uint256,uint256,uint256)":"63084859","invoiceTokenContract()":"b86a4c73","listings(uint256)":"de74e57b","owner()":"8da5cb5b","renounceOwnership()":"715018a6","transferOwnership(address)":"f2fde38b","updateListingPrice(uint256,uint256)":"c4604943"},"id":17}