{"abi":[{"type":"constructor","inputs":[],"stateMutability":"nonpayable"},{"type":"fallback","stateMutability":"payable"},{"type":"receive","stateMutability":"payable"},{"type":"function","name":"approve","inputs":[{"name":"to","type":"address","internalType":"address"},{"name":"tokenId","type":"uint256","internalType":"uint256"}],"outputs":[],"stateMutability":"nonpayable"},{"type":"function","name":"balanceOf","inputs":[{"name":"owner","type":"address","internalType":"address"}],"outputs":[{"name":"","type":"uint256","internalType":"uint256"}],"stateMutability":"view"},{"type":"function","name":"calculateLockedCollateral","inputs":[{"name":"_company","type":"address","internalType":"address"}],"outputs":[{"name":"","type":"uint256","internalType":"uint256"}],"stateMutability":"view"},{"type":"function","name":"companyCollateral","inputs":[{"name":"","type":"address","internalType":"address"}],"outputs":[{"name":"","type":"uint256","internalType":"uint256"}],"stateMutability":"view"},{"type":"function","name":"createInvoiceToken","inputs":[{"name":"_invoiceId","type":"uint256","internalType":"uint256"},{"name":"_totalInvoiceAmount","type":"uint256","internalType":"uint256"},{"name":"_tokenPrice","type":"uint256","internalType":"uint256"},{"name":"_tokensTotal","type":"uint256","internalType":"uint256"},{"name":"_maturityDate","type":"uint256","internalType":"uint256"},{"name":"_ipfsDocumentHash","type":"string","internalType":"string"}],"outputs":[],"stateMutability":"payable"},{"type":"function","name":"depositCollateral","inputs":[],"outputs":[],"stateMutability":"payable"},{"type":"function","name":"getApproved","inputs":[{"name":"tokenId","type":"uint256","internalType":"uint256"}],"outputs":[{"name":"","type":"address","internalType":"address"}],"stateMutability":"view"},{"type":"function","name":"invoices","inputs":[{"name":"","type":"uint256","internalType":"uint256"}],"outputs":[{"name":"totalInvoiceAmount","type":"uint256","internalType":"uint256"},{"name":"tokenPrice","type":"uint256","internalType":"uint256"},{"name":"tokensTotal","type":"uint256","internalType":"uint256"},{"name":"maturityDate","type":"uint256","internalType":"uint256"},{"name":"companyWallet","type":"address","internalType":"address"},{"name":"collateralDeposited","type":"uint256","internalType":"uint256"},{"name":"isActive","type":"bool","internalType":"bool"},{"name":"tokensRemaining","type":"uint256","internalType":"uint256"},{"name":"ipfsDocumentHash","type":"string","internalType":"string"}],"stateMutability":"view"},{"type":"function","name":"isApprovedForAll","inputs":[{"name":"owner","type":"address","internalType":"address"},{"name":"operator","type":"address","internalType":"address"}],"outputs":[{"name":"","type":"bool","internalType":"bool"}],"stateMutability":"view"},{"type":"function","name":"name","inputs":[],"outputs":[{"name":"","type":"string","internalType":"string"}],"stateMutability":"view"},{"type":"function","name":"owner","inputs":[],"outputs":[{"name":"","type":"address","internalType":"address"}],"stateMutability":"view"},{"type":"function","name":"ownerOf","inputs":[{"name":"tokenId","type":"uint256","internalType":"uint256"}],"outputs":[{"name":"","type":"address","internalType":"address"}],"stateMutability":"view"},{"type":"function","name":"purchaseToken","inputs":[{"name":"_invoiceId","type":"uint256","internalType":"uint256"},{"name":"_tokenAmount","type":"uint256","internalType":"uint256"}],"outputs":[],"stateMutability":"payable"},{"type":"function","name":"redeemTokens","inputs":[{"name":"_tokenId","type":"uint256","internalType":"uint256"}],"outputs":[],"stateMutability":"nonpayable"},{"type":"function","name":"renounceOwnership","inputs":[],"outputs":[],"stateMutability":"nonpayable"},{"type":"function","name":"safeTransferFrom","inputs":[{"name":"from","type":"address","internalType":"address"},{"name":"to","type":"address","internalType":"address"},{"name":"tokenId","type":"uint256","internalType":"uint256"}],"outputs":[],"stateMutability":"nonpayable"},{"type":"function","name":"safeTransferFrom","inputs":[{"name":"from","type":"address","internalType":"address"},{"name":"to","type":"address","internalType":"address"},{"name":"tokenId","type":"uint256","internalType":"uint256"},{"name":"data","type":"bytes","internalType":"bytes"}],"outputs":[],"stateMutability":"nonpayable"},{"type":"function","name":"setApprovalForAll","inputs":[{"name":"operator","type":"address","internalType":"address"},{"name":"approved","type":"bool","internalType":"bool"}],"outputs":[],"stateMutability":"nonpayable"},{"type":"function","name":"supportsInterface","inputs":[{"name":"interfaceId","type":"bytes4","internalType":"bytes4"}],"outputs":[{"name":"","type":"bool","internalType":"bool"}],"stateMutability":"view"},{"type":"function","name":"symbol","inputs":[],"outputs":[{"name":"","type":"string","internalType":"string"}],"stateMutability":"view"},{"type":"function","name":"tokenURI","inputs":[{"name":"tokenId","type":"uint256","internalType":"uint256"}],"outputs":[{"name":"","type":"string","internalType":"string"}],"stateMutability":"view"},{"type":"function","name":"transferFrom","inputs":[{"name":"from","type":"address","internalType":"address"},{"name":"to","type":"address","internalType":"address"},{"name":"tokenId","type":"uint256","internalType":"uint256"}],"outputs":[],"stateMutability":"nonpayable"},{"type":"function","name":"transferOwnership","inputs":[{"name":"newOwner","type":"address","internalType":"address"}],"outputs":[],"stateMutability":"nonpayable"},{"type":"function","name":"withdrawCollateral","inputs":[{"name":"_amount","type":"uint256","internalType":"uint256"}],"outputs":[],"stateMutability":"nonpayable"},{"type":"event","name":"Approval","inputs":[{"name":"owner","type":"address","indexed":true,"internalType":"address"},{"name":"approved","type":"address","indexed":true,"internalType":"address"},{"name":"tokenId","type":"uint256","indexed":true,"internalType":"uint256"}],"anonymous":false},{"type":"event","name":"ApprovalForAll","inputs":[{"name":"owner","type":"address","indexed":true,"internalType":"address"},{"name":"operator","type":"address","indexed":true,"internalType":"address"},{"name":"approved","type":"bool","indexed":false,"internalType":"bool"}],"anonymous":false},{"type":"event","name":"CollateralDeposited","inputs":[{"name":"company","type":"address","indexed":true,"internalType":"address"},{"name":"amount","type":"uint256","indexed":false,"internalType":"uint256"}],"anonymous":false},{"type":"event","name":"CollateralWithdrawn","inputs":[{"name":"company","type":"address","indexed":true,"internalType":"address"},{"name":"amount","type":"uint256","indexed":false,"internalType":"uint256"}],"anonymous":false},{"type":"event","name":"InvoiceTokenCreated","inputs":[{"name":"tokenId","type":"uint256","indexed":true,"internalType":"uint256"},{"name":"totalAmount","type":"uint256","indexed":false,"internalType":"uint256"},{"name":"tokenPrice","type":"uint256","indexed":false,"internalType":"uint256"},{"name":"tokensTotal","type":"uint256","indexed":false,"internalType":"uint256"},{"name":"ipfsDocumentHash","type":"string","indexed":false,"internalType":"string"}],"anonymous":false},{"type":"event","name":"InvoiceTokenPurchased","inputs":[{"name":"tokenId","type":"uint256","indexed":true,"internalType":"uint256"},{"name":"buyer","type":"address","indexed":true,"internalType":"address"},{"name":"tokenAmount","type":"uint256","indexed":false,"internalType":"uint256"},{"name":"paymentAmount","type":"uint256","indexed":false,"internalType":"uint256"}],"anonymous":false},{"type":"event","name":"OwnershipTransferred","inputs":[{"name":"previousOwner","type":"address","indexed":true,"internalType":"address"},{"name":"newOwner","type":"address","indexed":true,"internalType":"address"}],"anonymous":false},{"type":"event","name":"TokensRedeemed","inputs":[{"name":"tokenId","type":"uint256","indexed":true,"internalType":"uint256"},{"name":"user","type":"address","indexed":true,"internalType":"address"},{"name":"tokenAmount","type":"uint256","indexed":false,"internalType":"uint256"},{"name":"redemptionAmount","type":"uint256","indexed":false,"internalType":"uint256"}],"anonymous":false},{"type":"event","name":"Transfer","inputs":[{"name":"from","type":"address","indexed":true,"internalType":"address"},{"name":"to","type":"address","indexed":true,"internalType":"address"},{"name":"tokenId","type":"uint256","indexed":true,"internalType":"uint256"}],"anonymous":false},{"type":"error","name":"ERC721IncorrectOwner","inputs":[{"name":"sender","type":"address","internalType":"address"},{"name":"tokenId","type":"uint256","internalType":"uint256"},{"name":"owner","type":"address","internalType":"address"}]},{"type":"error","name":"ERC721InsufficientApproval","inputs":[{"name":"operator","type":"address","internalType":"address"},{"name":"tokenId","type":"uint256","internalType":"uint256"}]},{"type":"error","name":"ERC721InvalidApprover","inputs":[{"name":"approver","type":"address","internalType":"address"}]},{"type":"error","name":"ERC721InvalidOperator","inputs":[{"name":"operator","type":"address","internalType":"address"}]},{"type":"error","name":"ERC721InvalidOwner","inputs":[{"name":"owner","type":"address","internalType":"address"}]},{"type":"error","name":"ERC721InvalidReceiver","inputs":[{"name":"receiver","type":"address","internalType":"address"}]},{"type":"error","name":"ERC721InvalidSender","inputs":[{"name":"sender","type":"address","internalType":"address"}]},{"type":"error","name":"ERC721NonexistentToken","inputs":[{"name":"tokenId","type":"uint256","internalType":"uint256"}]},{"type":"error","name":"OwnableInvalidOwner","inputs":[{"name":"owner","type":"address","internalType":"address"}]},{"type":"error","name":"OwnableUnauthorizedAccount","inputs":[{"name":"account","type":"address","internalType":"address"}]},{"type":"error","name":"ReentrancyGuardReentrantCall","inputs":[]}],"bytecode":{"object":"0x608060405234801561000f575f5ffd5b50336040518060400160405280601581526020017f496e766f69636546696e616e63696e67546f6b656e00000000000000000000008152506040518060400160405280600381526020016212519560ea1b815250815f908161007191906101ab565b50600161007e82826101ab565b5050506001600160a01b0381166100ae57604051631e4fbdf760e01b81525f600482015260240160405180910390fd5b6100b7816100c2565b506001600755610265565b600680546001600160a01b038381166001600160a01b0319831681179093556040519116919082907f8be0079c531659141344cd1fd0a4f28419497f9722a3daafe3b4186f6b6457e0905f90a35050565b634e487b7160e01b5f52604160045260245ffd5b600181811c9082168061013b57607f821691505b60208210810361015957634e487b7160e01b5f52602260045260245ffd5b50919050565b601f8211156101a657805f5260205f20601f840160051c810160208510156101845750805b601f840160051c820191505b818110156101a3575f8155600101610190565b50505b505050565b81516001600160401b038111156101c4576101c4610113565b6101d8816101d28454610127565b8461015f565b6020601f82116001811461020a575f83156101f35750848201515b5f19600385901b1c1916600184901b1784556101a3565b5f84815260208120601f198516915b828110156102395787850151825560209485019460019092019101610219565b508482101561025657868401515f19600387901b60f8161c191681555b50505050600190811b01905550565b6125c0806102725f395ff3fe608060405260043610610141575f3560e01c806370a08231116100af578063b88d4fde1161006b578063b88d4fde14610394578063bb24b732146103b3578063c87b56dd146103d2578063d88651b8146103f1578063e985e9c514610404578063f2fde38b1461042357005b806370a08231146102f2578063715018a6146103115780638da5cb5b1461032557806395d89b4114610342578063a22cb46514610356578063a6e158f81461037557005b8063366cbd52116100fe578063366cbd521461022057806342842e0e146102595780634e6d1405146102785780636112fe2e146102ac5780636352211e146102cb5780636f758140146102ea57005b806301ffc9a71461014357806306fdde0314610177578063081812fc14610198578063095ea7b3146101cf57806323b872dd146101ee578063301c5b901461020d575b005b34801561014e575f5ffd5b5061016261015d366004611f78565b610442565b60405190151581526020015b60405180910390f35b348015610182575f5ffd5b5061018b610493565b60405161016e9190611fc1565b3480156101a3575f5ffd5b506101b76101b2366004611fd3565b610522565b6040516001600160a01b03909116815260200161016e565b3480156101da575f5ffd5b506101416101e9366004612005565b610549565b3480156101f9575f5ffd5b5061014161020836600461202d565b610558565b61014161021b366004612067565b6105e6565b34801561022b575f5ffd5b5061024b61023a366004612087565b60096020525f908152604090205481565b60405190815260200161016e565b348015610264575f5ffd5b5061014161027336600461202d565b6108e2565b348015610283575f5ffd5b50610297610292366004611fd3565b610901565b60405161016e999897969594939291906120a0565b3480156102b7575f5ffd5b506101416102c6366004611fd3565b6109e3565b3480156102d6575f5ffd5b506101b76102e5366004611fd3565b610b79565b610141610b83565b3480156102fd575f5ffd5b5061024b61030c366004612087565b610c53565b34801561031c575f5ffd5b50610141610c98565b348015610330575f5ffd5b506006546001600160a01b03166101b7565b34801561034d575f5ffd5b5061018b610ca9565b348015610361575f5ffd5b506101416103703660046120fe565b610cb8565b348015610380575f5ffd5b5061014161038f366004611fd3565b610cc3565b34801561039f575f5ffd5b506101416103ae36600461214b565b610eb0565b3480156103be575f5ffd5b5061024b6103cd366004612087565b610ec8565b3480156103dd575f5ffd5b5061018b6103ec366004611fd3565b6110b9565b6101416103ff366004612228565b61112a565b34801561040f575f5ffd5b5061016261041e3660046122c5565b6115a7565b34801561042e575f5ffd5b5061014161043d366004612087565b6115d4565b5f6001600160e01b031982166380ac58cd60e01b148061047257506001600160e01b03198216635b5e139f60e01b145b8061048d57506301ffc9a760e01b6001600160e01b03198316145b92915050565b60605f80546104a1906122f6565b80601f01602080910402602001604051908101604052809291908181526020018280546104cd906122f6565b80156105185780601f106104ef57610100808354040283529160200191610518565b820191905f5260205f20905b8154815290600101906020018083116104fb57829003601f168201915b5050505050905090565b5f61052c8261160e565b505f828152600460205260409020546001600160a01b031661048d565b610554828233611646565b5050565b6001600160a01b03821661058657604051633250574960e11b81525f60048201526024015b60405180910390fd5b5f610592838333611653565b9050836001600160a01b0316816001600160a01b0316146105e0576040516364283d7b60e01b81526001600160a01b038086166004830152602482018490528216604482015260640161057d565b50505050565b6105ee611745565b5f82815260086020526040902060048101546001600160a01b031661064e5760405162461bcd60e51b8152602060048201526016602482015275125b9d9bda58d948191bd95cc81b9bdd08195e1a5cdd60521b604482015260640161057d565b600681015460ff1661069a5760405162461bcd60e51b8152602060048201526015602482015274496e766f696365206973206e6f742061637469766560581b604482015260640161057d565b5f82116106f55760405162461bcd60e51b815260206004820152602360248201527f546f6b656e20616d6f756e74206d75737420626520677265617465722074686160448201526206e20360ec1b606482015260840161057d565b80600701548211156107495760405162461bcd60e51b815260206004820152601d60248201527f496e73756666696369656e7420746f6b656e7320617661696c61626c65000000604482015260640161057d565b60018101546107589083612342565b34146107a65760405162461bcd60e51b815260206004820152601860248201527f496e636f7272656374207061796d656e7420616d6f756e740000000000000000604482015260640161057d565b81816007015f8282546107b99190612359565b909155505f90506107c98461176f565b60048301549091506107e5906001600160a01b03163383611824565b60048201546040515f916001600160a01b03169034908381818185875af1925050503d805f8114610831576040519150601f19603f3d011682016040523d82523d5f602084013e610836565b606091505b50509050806108995760405162461bcd60e51b815260206004820152602960248201527f4661696c656420746f207472616e73666572207061796d656e7420746f2074686044820152686520636f6d70616e7960b81b606482015260840161057d565b60408051858152346020820152339184917f726707221b1397ea93462b58bb2f45ac536dd9b426c3b3647f18f27f439a2dbf910160405180910390a35050506105546001600755565b6108fc83838360405180602001604052805f815250610eb0565b505050565b600860208190525f918252604090912080546001820154600283015460038401546004850154600586015460068701546007880154988801805497999698959794966001600160a01b0390941695929460ff909216939291610962906122f6565b80601f016020809104026020016040519081016040528092919081815260200182805461098e906122f6565b80156109d95780601f106109b0576101008083540402835291602001916109d9565b820191905f5260205f20905b8154815290600101906020018083116109bc57829003601f168201915b5050505050905089565b6109eb611745565b335f90815260096020526040902054811115610a495760405162461bcd60e51b815260206004820152601860248201527f496e73756666696369656e7420636f6c6c61746572616c210000000000000000604482015260640161057d565b5f610a5333610ec8565b335f908152600960205260409020549091508290610a72908390612359565b1015610ae8576040805162461bcd60e51b81526020600482015260248101919091527f43616e6e6f74207769746864726177206c6f636b656420636f6c6c617465726160448201527f6c2e20496e73756666696369656e74206672656520636f6c6c61746572616c21606482015260840161057d565b335f9081526009602052604081208054849290610b06908490612359565b9091555050604051339083156108fc029084905f818181858888f19350505050158015610b35573d5f5f3e3d5ffd5b5060405182815233907fc30fcfbcaac9e0deffa719714eaa82396ff506a0d0d0eebe170830177288715d9060200160405180910390a250610b766001600755565b50565b5f61048d8261160e565b610b8b611745565b5f3411610bef5760405162461bcd60e51b815260206004820152602c60248201527f4465706f736974656420636f6c6c61746572616c206d7573742062652067726560448201526b61746572207468616e20302160a01b606482015260840161057d565b335f9081526009602052604081208054349290610c0d90849061236c565b909155505060405134815233907fd7243f6f8212d5188fd054141cf6ea89cfc0d91facb8c3afe2f88a13584801429060200160405180910390a2610c516001600755565b565b5f6001600160a01b038216610c7d576040516322718ad960e21b81525f600482015260240161057d565b506001600160a01b03165f9081526003602052604090205490565b610ca06118d1565b610c515f6118fe565b6060600180546104a1906122f6565b61055433838361194f565b610ccb611745565b5f8181526008602052604090206003810154421015610d255760405162461bcd60e51b8152602060048201526016602482015275125b9d9bda58d9481b9bdd081b585d1d5c99481e595d60521b604482015260640161057d565b5f81600101548260020154610d3a9190612342565b905080471015610d8c5760405162461bcd60e51b815260206004820152601c60248201527f496e73756666696369656e742066756e647320746f2072656465656d00000000604482015260640161057d565b60068201805460ff191690556004820154610db0906001600160a01b0316846119ed565b60048201546040515f916001600160a01b03169083908381818185875af1925050503d805f8114610dfc576040519150601f19603f3d011682016040523d82523d5f602084013e610e01565b606091505b5050905080610e525760405162461bcd60e51b815260206004820152601a60248201527f526564656d7074696f6e207472616e73666572206661696c6564000000000000604482015260640161057d565b6004830154600284015460408051918252602082018590526001600160a01b039092169186917f887d2394d1ad324612a23b35bba07e9d9d2a3401acf775233b363f69e9caacf9910160405180910390a3505050610b766001600755565b610ebb848484610558565b6105e03385858585611aa7565b6001600160a01b0381165f908152600a60209081526040808320805482518185028101850190935280835284938493929190830182828015610f2757602002820191905f5260205f20905b815481526020019060010190808311610f13575b509394505f93505050505b81518110156110b0575f60085f848481518110610f5157610f5161237f565b60209081029190910181015182528181019290925260409081015f20815161012081018352815481526001820154938101939093526002810154918301919091526003810154606083015260048101546001600160a01b03166080830152600581015460a0830152600681015460ff16151560c0830152600781015460e083015260088101805461010084019190610fe8906122f6565b80601f0160208091040260200160405190810160405280929190818152602001828054611014906122f6565b801561105f5780601f106110365761010080835404028352916020019161105f565b820191905f5260205f20905b81548152906001019060200180831161104257829003601f168201915b5050505050815250509050856001600160a01b031681608001516001600160a01b031614801561109057508060c001515b156110a75760a08101516110a4908561236c565b93505b50600101610f32565b50909392505050565b60606110c48261160e565b505f6110da60408051602081019091525f815290565b90505f8151116110f85760405180602001604052805f815250611123565b8061110284611bcf565b6040516020016111139291906123aa565b6040516020818303038152906040525b9392505050565b611132611745565b5f86116111935760405162461bcd60e51b815260206004820152602960248201527f416d6f756e74206f6620696e766f696365206d7573742062652067726561746560448201526839103a3430b710181760b91b606482015260840161057d565b5f85116111ee5760405162461bcd60e51b815260206004820152602360248201527f546f6b656e207072696365206d7573742062652067726561746572207468616e60448201526210181760e91b606482015260840161057d565b5f841161124e5760405162461bcd60e51b815260206004820152602860248201527f416d6f756e74206f6620746f6b656e73206d7573742062652067726561746572604482015267103a3430b710181760c11b606482015260840161057d565b4283116112ac5760405162461bcd60e51b815260206004820152602660248201527f4d6174757269747920646174652073686f756c6420626520696e2074686520666044820152653aba3ab9329760d11b606482015260840161057d565b806112f25760405162461bcd60e51b815260206004820152601660248201527524a82329903430b9b41034b9903932b8bab4b932b21760511b604482015260640161057d565b5f60646112ff8688612342565b61130a906050612342565b61131491906123be565b90505f61132033610ec8565b335f908152600960205260408120549192509061133e908390612359565b9050828110156113905760405162461bcd60e51b815260206004820152601f60248201527f496e73756666696369656e7420636f6d70616e7920636f6c6c61746572616c00604482015260640161057d565b335f90815260096020526040812080548592906113ae908490612359565b925050819055505f6040518061012001604052808b81526020018a8152602001898152602001888152602001336001600160a01b0316815260200185815260200160011515815260200189815260200187878080601f0160208091040260200160405190810160405280939291908181526020018383808284375f9201829052509390945250508d815260086020818152604092839020855181559085015160018201559184015160028301556060840151600383015560808401516004830180546001600160a01b0319166001600160a01b0390921691909117905560a0840151600583015560c084015160068301805460ff191691151591909117905560e0840151600783015561010084015193945084939192508201906114d29082612421565b505f9150505b8881101561152e575f816114ef8e620f4240612342565b6114f9919061236c565b90506115053382611c5f565b5f8d8152600b6020908152604082208054600181018255908352912001819055506001016114d8565b50335f908152600a60209081526040822080546001810182559083529120018b90558a7ffe45ceffbdf47bd47a5f6bae93b3b6474930aa871228eb8822e0d8f166c5a7d98b8b8b8a8a6040516115889594939291906124dc565b60405180910390a25050505061159e6001600755565b50505050505050565b6001600160a01b039182165f90815260056020908152604080832093909416825291909152205460ff1690565b6115dc6118d1565b6001600160a01b03811661160557604051631e4fbdf760e01b81525f600482015260240161057d565b610b76816118fe565b5f818152600260205260408120546001600160a01b03168061048d57604051637e27328960e01b81526004810184905260240161057d565b6108fc8383836001611cc0565b5f828152600260205260408120546001600160a01b039081169083161561167f5761167f818486611dc4565b6001600160a01b038116156116b95761169a5f855f5f611cc0565b6001600160a01b0381165f90815260036020526040902080545f190190555b6001600160a01b038516156116e7576001600160a01b0385165f908152600360205260409020805460010190555b5f8481526002602052604080822080546001600160a01b0319166001600160a01b0389811691821790925591518793918516917fddf252ad1be2c89b69c2b068fc378daa952ba7f163c4a11628f55a4df523b3ef91a4949350505050565b60026007540361176857604051633ee5aeb560e01b815260040160405180910390fd5b6002600755565b5f818152600b6020526040812080546117ca5760405162461bcd60e51b815260206004820152601860248201527f4e6f206672656520746f6b656e7320617661696c61626c650000000000000000604482015260640161057d565b80545f9082906117dc90600190612359565b815481106117ec576117ec61237f565b905f5260205f2001549050818054806118075761180761251f565b600190038181905f5260205f20015f905590558092505050919050565b6001600160a01b03821661184d57604051633250574960e11b81525f600482015260240161057d565b5f61185983835f611653565b90506001600160a01b03811661188557604051637e27328960e01b81526004810183905260240161057d565b836001600160a01b0316816001600160a01b0316146105e0576040516364283d7b60e01b81526001600160a01b038086166004830152602482018490528216604482015260640161057d565b6006546001600160a01b03163314610c515760405163118cdaa760e01b815233600482015260240161057d565b600680546001600160a01b038381166001600160a01b0319831681179093556040519116919082907f8be0079c531659141344cd1fd0a4f28419497f9722a3daafe3b4186f6b6457e0905f90a35050565b6001600160a01b03821661198157604051630b61174360e31b81526001600160a01b038316600482015260240161057d565b6001600160a01b038381165f81815260056020908152604080832094871680845294825291829020805460ff191686151590811790915591519182527f17307eab39ab6107e8899845ad3d59bd9653f200f220920489ca2b5937696c31910160405180910390a3505050565b6001600160a01b0382165f908152600a60205260408120905b81548110156105e05782828281548110611a2257611a2261237f565b905f5260205f20015403611a9f5781548290611a4090600190612359565b81548110611a5057611a5061237f565b905f5260205f200154828281548110611a6b57611a6b61237f565b905f5260205f20018190555081805480611a8757611a8761251f565b600190038181905f5260205f20015f905590556105e0565b600101611a06565b6001600160a01b0383163b15611bc857604051630a85bd0160e11b81526001600160a01b0384169063150b7a0290611ae9908890889087908790600401612533565b6020604051808303815f875af1925050508015611b23575060408051601f3d908101601f19168201909252611b209181019061256f565b60015b611b8a573d808015611b50576040519150601f19603f3d011682016040523d82523d5f602084013e611b55565b606091505b5080515f03611b8257604051633250574960e11b81526001600160a01b038516600482015260240161057d565b805181602001fd5b6001600160e01b03198116630a85bd0160e11b14611bc657604051633250574960e11b81526001600160a01b038516600482015260240161057d565b505b5050505050565b60605f611bdb83611e28565b60010190505f8167ffffffffffffffff811115611bfa57611bfa612137565b6040519080825280601f01601f191660200182016040528015611c24576020820181803683370190505b5090508181016020015b5f19016f181899199a1a9b1b9c1cb0b131b232b360811b600a86061a8153600a8504945084611c2e57509392505050565b6001600160a01b038216611c8857604051633250574960e11b81525f600482015260240161057d565b5f611c9483835f611653565b90506001600160a01b038116156108fc576040516339e3563760e11b81525f600482015260240161057d565b8080611cd457506001600160a01b03821615155b15611d95575f611ce38461160e565b90506001600160a01b03831615801590611d0f5750826001600160a01b0316816001600160a01b031614155b8015611d225750611d2081846115a7565b155b15611d4b5760405163a9fbf51f60e01b81526001600160a01b038416600482015260240161057d565b8115611d935783856001600160a01b0316826001600160a01b03167f8c5be1e5ebec7d5bd14f71427d1e84f3dd0314c0f7b2291e5b200ac8c7c3b92560405160405180910390a45b505b50505f90815260046020526040902080546001600160a01b0319166001600160a01b0392909216919091179055565b611dcf838383611eff565b6108fc576001600160a01b038316611dfd57604051637e27328960e01b81526004810182905260240161057d565b60405163177e802f60e01b81526001600160a01b03831660048201526024810182905260440161057d565b5f8072184f03e93ff9f4daa797ed6e38ed64bf6a1f0160401b8310611e665772184f03e93ff9f4daa797ed6e38ed64bf6a1f0160401b830492506040015b6d04ee2d6d415b85acef81000000008310611e92576d04ee2d6d415b85acef8100000000830492506020015b662386f26fc100008310611eb057662386f26fc10000830492506010015b6305f5e1008310611ec8576305f5e100830492506008015b6127108310611edc57612710830492506004015b60648310611eee576064830492506002015b600a831061048d5760010192915050565b5f6001600160a01b03831615801590611f5b5750826001600160a01b0316846001600160a01b03161480611f385750611f3884846115a7565b80611f5b57505f828152600460205260409020546001600160a01b038481169116145b949350505050565b6001600160e01b031981168114610b76575f5ffd5b5f60208284031215611f88575f5ffd5b813561112381611f63565b5f81518084528060208401602086015e5f602082860101526020601f19601f83011685010191505092915050565b602081525f6111236020830184611f93565b5f60208284031215611fe3575f5ffd5b5035919050565b80356001600160a01b0381168114612000575f5ffd5b919050565b5f5f60408385031215612016575f5ffd5b61201f83611fea565b946020939093013593505050565b5f5f5f6060848603121561203f575f5ffd5b61204884611fea565b925061205660208501611fea565b929592945050506040919091013590565b5f5f60408385031215612078575f5ffd5b50508035926020909101359150565b5f60208284031215612097575f5ffd5b61112382611fea565b89815288602082015287604082015286606082015260018060a01b03861660808201528460a082015283151560c08201528260e08201526101206101008201525f6120ef610120830184611f93565b9b9a5050505050505050505050565b5f5f6040838503121561210f575f5ffd5b61211883611fea565b91506020830135801515811461212c575f5ffd5b809150509250929050565b634e487b7160e01b5f52604160045260245ffd5b5f5f5f5f6080858703121561215e575f5ffd5b61216785611fea565b935061217560208601611fea565b925060408501359150606085013567ffffffffffffffff811115612197575f5ffd5b8501601f810187136121a7575f5ffd5b803567ffffffffffffffff8111156121c1576121c1612137565b604051601f8201601f19908116603f0116810167ffffffffffffffff811182821017156121f0576121f0612137565b604052818152828201602001891015612207575f5ffd5b816020840160208301375f6020838301015280935050505092959194509250565b5f5f5f5f5f5f5f60c0888a03121561223e575f5ffd5b873596506020880135955060408801359450606088013593506080880135925060a088013567ffffffffffffffff811115612277575f5ffd5b8801601f81018a13612287575f5ffd5b803567ffffffffffffffff81111561229d575f5ffd5b8a60208284010111156122ae575f5ffd5b602082019350809250505092959891949750929550565b5f5f604083850312156122d6575f5ffd5b6122df83611fea565b91506122ed60208401611fea565b90509250929050565b600181811c9082168061230a57607f821691505b60208210810361232857634e487b7160e01b5f52602260045260245ffd5b50919050565b634e487b7160e01b5f52601160045260245ffd5b808202811582820484141761048d5761048d61232e565b8181038181111561048d5761048d61232e565b8082018082111561048d5761048d61232e565b634e487b7160e01b5f52603260045260245ffd5b5f81518060208401855e5f93019283525090919050565b5f611f5b6123b88386612393565b84612393565b5f826123d857634e487b7160e01b5f52601260045260245ffd5b500490565b601f8211156108fc57805f5260205f20601f840160051c810160208510156124025750805b601f840160051c820191505b81811015611bc8575f815560010161240e565b815167ffffffffffffffff81111561243b5761243b612137565b61244f8161244984546122f6565b846123dd565b6020601f821160018114612481575f831561246a5750848201515b5f19600385901b1c1916600184901b178455611bc8565b5f84815260208120601f198516915b828110156124b05787850151825560209485019460019092019101612490565b50848210156124cd57868401515f19600387901b60f8161c191681555b50505050600190811b01905550565b85815284602082015283604082015260806060820152816080820152818360a08301375f81830160a090810191909152601f909201601f19160101949350505050565b634e487b7160e01b5f52603160045260245ffd5b6001600160a01b03858116825284166020820152604081018390526080606082018190525f9061256590830184611f93565b9695505050505050565b5f6020828403121561257f575f5ffd5b815161112381611f6356fea264697066735822122076414665883cac27f91c9400645f2cde747c7183d3b3e46bec7c6fcc83cd72b464736f6c634300081c0033","linkReferences":{}},"methodIdentifiers":{"approve(address,uint256)":"095ea7b3","balanceOf(address)":"70a08231","calculateLockedCollateral(address)":"bb24b732","companyCollateral(address)":"366cbd52","createInvoiceToken(uint256,uint256,uint256,uint256,uint256,string)":"d88651b8","depositCollateral()":"6f758140","getApproved(uint256)":"081812fc","invoices(uint256)":"4e6d1405","isApprovedForAll(address,address)":"e985e9c5","name()":"06fdde03","owner()":"8da5cb5b","ownerOf(uint256)":"6352211e","purchaseToken(uint256,uint256)":"301c5b90","redeemTokens(uint256)":"a6e158f8","renounceOwnership()":"715018a6","safeTransferFrom(address,address,uint256)":"42842e0e","safeTransferFrom(address,address,uint256,bytes)":"b88d4fde","setApprovalForAll(address,bool)":"a22cb465","supportsInterface(bytes4)":"01ffc9a7","symbol()":"95d89b41","tokenURI(uint256)":"c87b56dd","transferFrom(address,address,uint256)":"23b872dd","transferOwnership(address)":"f2fde38b","withdrawCollateral(uint256)":"6112fe2e"},"id":38}