{"abi":[{"type":"constructor","inputs":[],"stateMutability":"nonpayable"},{"type":"fallback","stateMutability":"payable"},{"type":"receive","stateMutability":"payable"},{"type":"function","name":"MIN_DEPOSIT","inputs":[],"outputs":[{"name":"","type":"uint256","internalType":"uint256"}],"stateMutability":"view"},{"type":"function","name":"MIN_LOCK_PERCENTAGE","inputs":[],"outputs":[{"name":"","type":"uint256","internalType":"uint256"}],"stateMutability":"view"},{"type":"function","name":"approve","inputs":[{"name":"to","type":"address","internalType":"address"},{"name":"tokenId","type":"uint256","internalType":"uint256"}],"outputs":[],"stateMutability":"nonpayable"},{"type":"function","name":"balanceOf","inputs":[{"name":"owner","type":"address","internalType":"address"}],"outputs":[{"name":"","type":"uint256","internalType":"uint256"}],"stateMutability":"view"},{"type":"function","name":"calculateLockedCollateral","inputs":[{"name":"_company","type":"address","internalType":"address"}],"outputs":[{"name":"lockedAmount","type":"uint256","internalType":"uint256"}],"stateMutability":"view"},{"type":"function","name":"companyCollateral","inputs":[{"name":"","type":"address","internalType":"address"}],"outputs":[{"name":"","type":"uint256","internalType":"uint256"}],"stateMutability":"view"},{"type":"function","name":"createInvoiceToken","inputs":[{"name":"_invoiceId","type":"uint256","internalType":"uint256"},{"name":"_totalInvoiceAmount","type":"uint256","internalType":"uint256"},{"name":"_tokenPrice","type":"uint256","internalType":"uint256"},{"name":"_tokensTotal","type":"uint256","internalType":"uint256"},{"name":"_maturityDate","type":"uint256","internalType":"uint256"},{"name":"_ipfsDocumentHash","type":"string","internalType":"string"}],"outputs":[],"stateMutability":"payable"},{"type":"function","name":"depositCollateral","inputs":[],"outputs":[],"stateMutability":"payable"},{"type":"function","name":"getApproved","inputs":[{"name":"tokenId","type":"uint256","internalType":"uint256"}],"outputs":[{"name":"","type":"address","internalType":"address"}],"stateMutability":"view"},{"type":"function","name":"getPurchasedTokens","inputs":[{"name":"user","type":"address","internalType":"address"}],"outputs":[{"name":"","type":"uint256[]","internalType":"uint256[]"}],"stateMutability":"view"},{"type":"function","name":"invoices","inputs":[{"name":"","type":"uint256","internalType":"uint256"}],"outputs":[{"name":"totalInvoiceAmount","type":"uint256","internalType":"uint256"},{"name":"tokenPrice","type":"uint256","internalType":"uint256"},{"name":"tokensTotal","type":"uint256","internalType":"uint256"},{"name":"maturityDate","type":"uint256","internalType":"uint256"},{"name":"companyWallet","type":"address","internalType":"address"},{"name":"collateralDeposited","type":"uint256","internalType":"uint256"},{"name":"isActive","type":"bool","internalType":"bool"},{"name":"tokensRemaining","type":"uint256","internalType":"uint256"},{"name":"ipfsDocumentHash","type":"string","internalType":"string"}],"stateMutability":"view"},{"type":"function","name":"isApprovedForAll","inputs":[{"name":"owner","type":"address","internalType":"address"},{"name":"operator","type":"address","internalType":"address"}],"outputs":[{"name":"","type":"bool","internalType":"bool"}],"stateMutability":"view"},{"type":"function","name":"name","inputs":[],"outputs":[{"name":"","type":"string","internalType":"string"}],"stateMutability":"view"},{"type":"function","name":"owner","inputs":[],"outputs":[{"name":"","type":"address","internalType":"address"}],"stateMutability":"view"},{"type":"function","name":"ownerOf","inputs":[{"name":"tokenId","type":"uint256","internalType":"uint256"}],"outputs":[{"name":"","type":"address","internalType":"address"}],"stateMutability":"view"},{"type":"function","name":"purchaseToken","inputs":[{"name":"_invoiceId","type":"uint256","internalType":"uint256"},{"name":"_tokenAmount","type":"uint256","internalType":"uint256"}],"outputs":[],"stateMutability":"payable"},{"type":"function","name":"redeemTokens","inputs":[{"name":"_invoiceId","type":"uint256","internalType":"uint256"}],"outputs":[],"stateMutability":"nonpayable"},{"type":"function","name":"renounceOwnership","inputs":[],"outputs":[],"stateMutability":"nonpayable"},{"type":"function","name":"safeTransferFrom","inputs":[{"name":"from","type":"address","internalType":"address"},{"name":"to","type":"address","internalType":"address"},{"name":"tokenId","type":"uint256","internalType":"uint256"}],"outputs":[],"stateMutability":"nonpayable"},{"type":"function","name":"safeTransferFrom","inputs":[{"name":"from","type":"address","internalType":"address"},{"name":"to","type":"address","internalType":"address"},{"name":"tokenId","type":"uint256","internalType":"uint256"},{"name":"data","type":"bytes","internalType":"bytes"}],"outputs":[],"stateMutability":"nonpayable"},{"type":"function","name":"setApprovalForAll","inputs":[{"name":"operator","type":"address","internalType":"address"},{"name":"approved","type":"bool","internalType":"bool"}],"outputs":[],"stateMutability":"nonpayable"},{"type":"function","name":"supportsInterface","inputs":[{"name":"interfaceId","type":"bytes4","internalType":"bytes4"}],"outputs":[{"name":"","type":"bool","internalType":"bool"}],"stateMutability":"view"},{"type":"function","name":"symbol","inputs":[],"outputs":[{"name":"","type":"string","internalType":"string"}],"stateMutability":"view"},{"type":"function","name":"tokenURI","inputs":[{"name":"tokenId","type":"uint256","internalType":"uint256"}],"outputs":[{"name":"","type":"string","internalType":"string"}],"stateMutability":"view"},{"type":"function","name":"transferFrom","inputs":[{"name":"from","type":"address","internalType":"address"},{"name":"to","type":"address","internalType":"address"},{"name":"tokenId","type":"uint256","internalType":"uint256"}],"outputs":[],"stateMutability":"nonpayable"},{"type":"function","name":"transferOwnership","inputs":[{"name":"newOwner","type":"address","internalType":"address"}],"outputs":[],"stateMutability":"nonpayable"},{"type":"function","name":"userPurchasedTokens","inputs":[{"name":"","type":"address","internalType":"address"},{"name":"","type":"uint256","internalType":"uint256"}],"outputs":[{"name":"","type":"uint256","internalType":"uint256"}],"stateMutability":"view"},{"type":"function","name":"withdrawCollateral","inputs":[{"name":"_amount","type":"uint256","internalType":"uint256"}],"outputs":[],"stateMutability":"nonpayable"},{"type":"event","name":"Approval","inputs":[{"name":"owner","type":"address","indexed":true,"internalType":"address"},{"name":"approved","type":"address","indexed":true,"internalType":"address"},{"name":"tokenId","type":"uint256","indexed":true,"internalType":"uint256"}],"anonymous":false},{"type":"event","name":"ApprovalForAll","inputs":[{"name":"owner","type":"address","indexed":true,"internalType":"address"},{"name":"operator","type":"address","indexed":true,"internalType":"address"},{"name":"approved","type":"bool","indexed":false,"internalType":"bool"}],"anonymous":false},{"type":"event","name":"CollateralDeposited","inputs":[{"name":"company","type":"address","indexed":true,"internalType":"address"},{"name":"amount","type":"uint256","indexed":false,"internalType":"uint256"}],"anonymous":false},{"type":"event","name":"CollateralWithdrawn","inputs":[{"name":"company","type":"address","indexed":true,"internalType":"address"},{"name":"amount","type":"uint256","indexed":false,"internalType":"uint256"}],"anonymous":false},{"type":"event","name":"InvoiceTokenCreated","inputs":[{"name":"tokenId","type":"uint256","indexed":true,"internalType":"uint256"},{"name":"totalAmount","type":"uint256","indexed":false,"internalType":"uint256"},{"name":"tokenPrice","type":"uint256","indexed":false,"internalType":"uint256"},{"name":"tokensTotal","type":"uint256","indexed":false,"internalType":"uint256"},{"name":"ipfsDocumentHash","type":"string","indexed":false,"internalType":"string"}],"anonymous":false},{"type":"event","name":"InvoiceTokenPurchased","inputs":[{"name":"tokenId","type":"uint256","indexed":true,"internalType":"uint256"},{"name":"buyer","type":"address","indexed":true,"internalType":"address"},{"name":"tokenAmount","type":"uint256","indexed":false,"internalType":"uint256"},{"name":"paymentAmount","type":"uint256","indexed":false,"internalType":"uint256"}],"anonymous":false},{"type":"event","name":"InvoiceTokenPurchasedback","inputs":[{"name":"tokenId","type":"uint256","indexed":true,"internalType":"uint256"},{"name":"buyer","type":"address","indexed":true,"internalType":"address"},{"name":"paymentAmount","type":"uint256","indexed":false,"internalType":"uint256"}],"anonymous":false},{"type":"event","name":"OwnershipTransferred","inputs":[{"name":"previousOwner","type":"address","indexed":true,"internalType":"address"},{"name":"newOwner","type":"address","indexed":true,"internalType":"address"}],"anonymous":false},{"type":"event","name":"TokensRedeemed","inputs":[{"name":"tokenId","type":"uint256","indexed":true,"internalType":"uint256"},{"name":"user","type":"address","indexed":true,"internalType":"address"},{"name":"tokenAmount","type":"uint256","indexed":false,"internalType":"uint256"},{"name":"redemptionAmount","type":"uint256","indexed":false,"internalType":"uint256"}],"anonymous":false},{"type":"event","name":"Transfer","inputs":[{"name":"from","type":"address","indexed":true,"internalType":"address"},{"name":"to","type":"address","indexed":true,"internalType":"address"},{"name":"tokenId","type":"uint256","indexed":true,"internalType":"uint256"}],"anonymous":false},{"type":"error","name":"ERC721IncorrectOwner","inputs":[{"name":"sender","type":"address","internalType":"address"},{"name":"tokenId","type":"uint256","internalType":"uint256"},{"name":"owner","type":"address","internalType":"address"}]},{"type":"error","name":"ERC721InsufficientApproval","inputs":[{"name":"operator","type":"address","internalType":"address"},{"name":"tokenId","type":"uint256","internalType":"uint256"}]},{"type":"error","name":"ERC721InvalidApprover","inputs":[{"name":"approver","type":"address","internalType":"address"}]},{"type":"error","name":"ERC721InvalidOperator","inputs":[{"name":"operator","type":"address","internalType":"address"}]},{"type":"error","name":"ERC721InvalidOwner","inputs":[{"name":"owner","type":"address","internalType":"address"}]},{"type":"error","name":"ERC721InvalidReceiver","inputs":[{"name":"receiver","type":"address","internalType":"address"}]},{"type":"error","name":"ERC721InvalidSender","inputs":[{"name":"sender","type":"address","internalType":"address"}]},{"type":"error","name":"ERC721NonexistentToken","inputs":[{"name":"tokenId","type":"uint256","internalType":"uint256"}]},{"type":"error","name":"IncorrectPaymentAmount","inputs":[{"name":"sent","type":"uint256","internalType":"uint256"},{"name":"expected","type":"uint256","internalType":"uint256"}]},{"type":"error","name":"InsufficientCollateral","inputs":[{"name":"available","type":"uint256","internalType":"uint256"},{"name":"required","type":"uint256","internalType":"uint256"}]},{"type":"error","name":"InsufficientFreeCollateral","inputs":[{"name":"available","type":"uint256","internalType":"uint256"},{"name":"required","type":"uint256","internalType":"uint256"}]},{"type":"error","name":"InsufficientFundsToRedeem","inputs":[{"name":"company","type":"address","internalType":"address"},{"name":"investor","type":"address","internalType":"address"},{"name":"amount","type":"uint256","internalType":"uint256"}]},{"type":"error","name":"InsufficientTokens","inputs":[{"name":"requested","type":"uint256","internalType":"uint256"},{"name":"available","type":"uint256","internalType":"uint256"}]},{"type":"error","name":"InvalidCollateralAmount","inputs":[]},{"type":"error","name":"InvalidInvoiceAmount","inputs":[{"name":"amount","type":"uint256","internalType":"uint256"}]},{"type":"error","name":"InvalidMaturityDate","inputs":[{"name":"currentTimestamp","type":"uint256","internalType":"uint256"},{"name":"maturityDate","type":"uint256","internalType":"uint256"}]},{"type":"error","name":"InvalidTokenPrice","inputs":[{"name":"price","type":"uint256","internalType":"uint256"}]},{"type":"error","name":"InvalidTokensToBuy","inputs":[{"name":"amount","type":"uint256","internalType":"uint256"}]},{"type":"error","name":"InvoiceNotActive","inputs":[{"name":"invoiceId","type":"uint256","internalType":"uint256"}]},{"type":"error","name":"MissingIPFSHash","inputs":[]},{"type":"error","name":"NotTokenOwner","inputs":[{"name":"investor","type":"address","internalType":"address"},{"name":"tokenId","type":"uint256","internalType":"uint256"}]},{"type":"error","name":"OwnableInvalidOwner","inputs":[{"name":"owner","type":"address","internalType":"address"}]},{"type":"error","name":"OwnableUnauthorizedAccount","inputs":[{"name":"account","type":"address","internalType":"address"}]},{"type":"error","name":"RedemptionPaymentTransferFailed","inputs":[{"name":"companyWallet","type":"address","internalType":"address"},{"name":"buyer","type":"address","internalType":"address"},{"name":"amount","type":"uint256","internalType":"uint256"}]},{"type":"error","name":"ReentrancyGuardReentrantCall","inputs":[]},{"type":"error","name":"TokenPaymentTransferFailed","inputs":[{"name":"companyWallet","type":"address","internalType":"address"},{"name":"buyer","type":"address","internalType":"address"},{"name":"amount","type":"uint256","internalType":"uint256"}]}],"bytecode":{"object":"0x608060405234801561000f575f5ffd5b50336040518060400160405280601581526020017f496e766f69636546696e616e63696e67546f6b656e00000000000000000000008152506040518060400160405280600381526020016212519560ea1b815250815f908161007191906101ab565b50600161007e82826101ab565b5050506001600160a01b0381166100ae57604051631e4fbdf760e01b81525f600482015260240160405180910390fd5b6100b7816100c2565b506001600755610265565b600680546001600160a01b038381166001600160a01b0319831681179093556040519116919082907f8be0079c531659141344cd1fd0a4f28419497f9722a3daafe3b4186f6b6457e0905f90a35050565b634e487b7160e01b5f52604160045260245ffd5b600181811c9082168061013b57607f821691505b60208210810361015957634e487b7160e01b5f52602260045260245ffd5b50919050565b601f8211156101a657805f5260205f20601f840160051c810160208510156101845750805b601f840160051c820191505b818110156101a3575f8155600101610190565b50505b505050565b81516001600160401b038111156101c4576101c4610113565b6101d8816101d28454610127565b8461015f565b6020601f82116001811461020a575f83156101f35750848201515b5f19600385901b1c1916600184901b1784556101a3565b5f84815260208120601f198516915b828110156102395787850151825560209485019460019092019101610219565b508482101561025657868401515f19600387901b60f8161c191681555b50505050600190811b01905550565b612645806102725f395ff3fe6080604052600436106101a1575f3560e01c80636f758140116100df578063b88d4fde11610083578063d88651b811610060578063d88651b8146104b0578063e1e158a5146104c3578063e985e9c5146104de578063f2fde38b146104fd57005b8063b88d4fde14610453578063bb24b73214610472578063c87b56dd1461049157005b80638da5cb5b116100bc5780638da5cb5b146103e457806395d89b4114610401578063a22cb46514610415578063a6e158f81461043457005b80636f758140146103a957806370a08231146103b1578063715018a6146103d057005b8063366cbd521161014657806354ed08c81161012357806354ed08c81461032b5780636112fe2e146103575780636352211e146103765780636536c9ac1461039557005b8063366cbd52146102ad57806342842e0e146102d85780634e6d1405146102f757005b8063095ea7b31161017f578063095ea7b31461022f5780631e41e3411461024e57806323b872dd1461027b578063301c5b901461029a57005b806301ffc9a7146101a357806306fdde03146101d7578063081812fc146101f8575b005b3480156101ae575f5ffd5b506101c26101bd366004611fbb565b61051c565b60405190151581526020015b60405180910390f35b3480156101e2575f5ffd5b506101eb61056d565b6040516101ce9190612004565b348015610203575f5ffd5b50610217610212366004612016565b6105fc565b6040516001600160a01b0390911681526020016101ce565b34801561023a575f5ffd5b506101a1610249366004612048565b610623565b348015610259575f5ffd5b5061026d610268366004612048565b610632565b6040519081526020016101ce565b348015610286575f5ffd5b506101a1610295366004612070565b61065d565b6101a16102a83660046120aa565b6106eb565b3480156102b8575f5ffd5b5061026d6102c73660046120ca565b60096020525f908152604090205481565b3480156102e3575f5ffd5b506101a16102f2366004612070565b610905565b348015610302575f5ffd5b50610316610311366004612016565b610924565b6040516101ce999897969594939291906120e3565b348015610336575f5ffd5b5061034a6103453660046120ca565b610a06565b6040516101ce9190612141565b348015610362575f5ffd5b506101a1610371366004612016565b610a6f565b348015610381575f5ffd5b50610217610390366004612016565b610b60565b3480156103a0575f5ffd5b5061026d605081565b6101a1610b6a565b3480156103bc575f5ffd5b5061026d6103cb3660046120ca565b610bf6565b3480156103db575f5ffd5b506101a1610c3b565b3480156103ef575f5ffd5b506006546001600160a01b0316610217565b34801561040c575f5ffd5b506101eb610c4c565b348015610420575f5ffd5b506101a161042f366004612183565b610c5b565b34801561043f575f5ffd5b506101a161044e366004612016565b610c66565b34801561045e575f5ffd5b506101a161046d3660046121d0565b610f46565b34801561047d575f5ffd5b5061026d61048c3660046120ca565b610f5e565b34801561049c575f5ffd5b506101eb6104ab366004612016565b61117d565b6101a16104be3660046122ad565b6111ee565b3480156104ce575f5ffd5b5061026d67016345785d8a000081565b3480156104e9575f5ffd5b506101c26104f836600461234a565b6115b1565b348015610508575f5ffd5b506101a16105173660046120ca565b6115de565b5f6001600160e01b031982166380ac58cd60e01b148061054c57506001600160e01b03198216635b5e139f60e01b145b8061056757506301ffc9a760e01b6001600160e01b03198316145b92915050565b60605f805461057b9061237b565b80601f01602080910402602001604051908101604052809291908181526020018280546105a79061237b565b80156105f25780601f106105c9576101008083540402835291602001916105f2565b820191905f5260205f20905b8154815290600101906020018083116105d557829003601f168201915b5050505050905090565b5f61060682611618565b505f828152600460205260409020546001600160a01b0316610567565b61062e828233611650565b5050565b600c602052815f5260405f20818154811061064b575f80fd5b905f5260205f20015f91509150505481565b6001600160a01b03821661068b57604051633250574960e11b81525f60048201526024015b60405180910390fd5b5f61069783833361165d565b9050836001600160a01b0316816001600160a01b0316146106e5576040516364283d7b60e01b81526001600160a01b0380861660048301526024820184905282166044820152606401610682565b50505050565b6106f361174f565b5f828152600860205260409020600681015460ff161580610718575080600301544210155b1561073957604051631e9f000d60e21b815260048101849052602401610682565b600181015461074890836123c7565b3414610781573481600101548361075f91906123c7565b6040516311ebdab360e21b815260048101929092526024820152604401610682565b80600701548211156107b657600781015460405163c7bcc1b960e01b8152610682918491600401918252602082015260400190565b81816007015f8282546107c991906123de565b909155505f90505b8281101561082a575f6107e385611779565b60048401549091506107ff906001600160a01b0316338361180a565b335f908152600c602090815260408220805460018181018355918452919092200191909155016107d1565b5060048101546040515f916001600160a01b03169034908381818185875af1925050503d805f8114610877576040519150601f19603f3d011682016040523d82523d5f602084013e61087c565b606091505b50509050806108bd5760048281015460405162103ef760ea1b81526001600160a01b0390911691810191909152336024820152346044820152606401610682565b60408051848152346020820152339186917f726707221b1397ea93462b58bb2f45ac536dd9b426c3b3647f18f27f439a2dbf910160405180910390a3505061062e6001600755565b61091f83838360405180602001604052805f815250610f46565b505050565b600860208190525f918252604090912080546001820154600283015460038401546004850154600586015460068701546007880154988801805497999698959794966001600160a01b0390941695929460ff9092169392916109859061237b565b80601f01602080910402602001604051908101604052809291908181526020018280546109b19061237b565b80156109fc5780601f106109d3576101008083540402835291602001916109fc565b820191905f5260205f20905b8154815290600101906020018083116109df57829003601f168201915b5050505050905089565b6001600160a01b0381165f908152600c6020908152604091829020805483518184028101840190945280845260609392830182828015610a6357602002820191905f5260205f20905b815481526020019060010190808311610a4f575b50505050509050919050565b610a7761174f565b805f610a8233610f5e565b335f9081526009602052604081205491925090610aa09083906123de565b905082811015610acd57604051632c1f8ef160e21b81526004810182905260248101849052604401610682565b335f9081526009602052604081208054869290610aeb9084906123de565b9091555050604051339085156108fc029086905f818181858888f19350505050158015610b1a573d5f5f3e3d5ffd5b5060405184815233907fc30fcfbcaac9e0deffa719714eaa82396ff506a0d0d0eebe170830177288715d9060200160405180910390a2505050610b5d6001600755565b50565b5f61056782611618565b610b7261174f565b345f03610b925760405163fbd85bc360e01b815260040160405180910390fd5b335f9081526009602052604081208054349290610bb09084906123f1565b909155505060405134815233907fd7243f6f8212d5188fd054141cf6ea89cfc0d91facb8c3afe2f88a13584801429060200160405180910390a2610bf46001600755565b565b5f6001600160a01b038216610c20576040516322718ad960e21b81525f6004820152602401610682565b506001600160a01b03165f9081526003602052604090205490565b610c436118b7565b610bf45f6118e4565b60606001805461057b9061237b565b61062e338383611935565b610c6e61174f565b5f8181526008602052604090206004015481906001600160a01b03163314610cc95760405162461bcd60e51b815260206004820152600e60248201526d139bdd08185d5d1a1bdc9a5e995960921b6044820152606401610682565b5f8281526008602052604090206003810154421015610d0a576003810154604051631943ae1760e31b81524260048201526024810191909152604401610682565b5f81600701548260020154610d1f91906123de565b90505f826001015482610d3291906123c7565b60048401549091506001600160a01b031631811115610d855760048381015460405163f91e1f0760e01b81526001600160a01b039091169181019190915233602482015260448101829052606401610682565b5f5b8360020154811015610ed6575f846009018281548110610da957610da9612404565b905f5260205f20015490505f610dbe82610b60565b90506001600160a01b0381163314610ecc576004860154610dea9082906001600160a01b03168461180a565b336001600160a01b0316827f5c045d5da3a7e00ae951ce5f24095b438bfc8c041d01a14b3f5c46b89d6871f28860010154604051610e2a91815260200190565b60405180910390a360018601546040515f916001600160a01b038416918381818185875af1925050503d805f8114610e7d576040519150601f19603f3d011682016040523d82523d5f602084013e610e82565b606091505b5050905080610eca576004878101546001890154604051635b83b6e160e01b81526001600160a01b039283169381019390935290841660248301526044820152606401610682565b505b5050600101610d87565b5060068301805460ff191690556004830154610efb906001600160a01b0316866119d3565b6040805183815260208101839052339187917f887d2394d1ad324612a23b35bba07e9d9d2a3401acf775233b363f69e9caacf9910160405180910390a350505050610b5d6001600755565b610f5184848461065d565b6106e53385858585611a8d565b6001600160a01b0381165f908152600a6020908152604080832080548251818502810185019093528083528493830182828015610fb857602002820191905f5260205f20905b815481526020019060010190808311610fa4575b509394505f93505050505b8151811015611176575f60085f848481518110610fe257610fe2612404565b60209081029190910181015182528181019290925260409081015f20815161014081018352815481526001820154938101939093526002810154918301919091526003810154606083015260048101546001600160a01b03166080830152600581015460a0830152600681015460ff16151560c0830152600781015460e0830152600881018054610100840191906110799061237b565b80601f01602080910402602001604051908101604052809291908181526020018280546110a59061237b565b80156110f05780601f106110c7576101008083540402835291602001916110f0565b820191905f5260205f20905b8154815290600101906020018083116110d357829003601f168201915b505050505081526020016009820180548060200260200160405190810160405280929190818152602001828054801561114657602002820191905f5260205f20905b815481526020019060010190808311611132575b50505050508152505090508060c001511561116d5760a081015161116a90856123f1565b93505b50600101610fc3565b5050919050565b606061118882611618565b505f61119e60408051602081019091525f815290565b90505f8151116111bc5760405180602001604052805f8152506111e7565b806111c684611bb5565b6040516020016111d792919061242f565b6040516020818303038152906040525b9392505050565b6111f661174f565b855f03611219576040516310d34d9b60e31b815260048101879052602401610682565b845f0361123c5760405163820f079560e01b815260048101869052602401610682565b835f0361125f57604051632c949d6160e01b815260048101859052602401610682565b42831161128857604051631943ae1760e31b815242600482015260248101849052604401610682565b5f8190036112a95760405163cd93a64160e01b815260040160405180910390fd5b5f60646112b686886123c7565b6112c19060506123c7565b6112cb9190612443565b90505f6112d733610f5e565b335f908152600960205260409020546112f091906123de565b90508181101561131d57604051632c1f8ef160e21b81526004810182905260248101839052604401610682565b5f8667ffffffffffffffff811115611337576113376121bc565b604051908082528060200260200182016040528015611360578160200160208202803683370190505b5090505f5b878110156113d9575f8161137c8d620f42406123c7565b61138691906123f1565b90506113923382611c45565b5f8c8152600b6020908152604082208054600181018255908352912001819055808383815181106113c5576113c5612404565b602090810291909101015250600101611365565b50335f90815260096020526040812080548592906113f89084906123de565b925050819055506040518061014001604052808a8152602001898152602001888152602001878152602001336001600160a01b0316815260200184815260200160011515815260200188815260200186868080601f0160208091040260200160405190810160405280939291908181526020018383808284375f92018290525093855250505060209182018490528c81526008808352604091829020845181559284015160018401559083015160028301556060830151600383015560808301516004830180546001600160a01b0319166001600160a01b0390921691909117905560a0830151600583015560c083015160068301805460ff191691151591909117905560e083015160078301556101008301519082019061151a90826124a6565b506101208201518051611537916009840191602090910190611f49565b5050335f908152600a60209081526040822080546001810182559083529120018b905550897ffe45ceffbdf47bd47a5f6bae93b3b6474930aa871228eb8822e0d8f166c5a7d98a8a8a8989604051611593959493929190612561565b60405180910390a25050506115a86001600755565b50505050505050565b6001600160a01b039182165f90815260056020908152604080832093909416825291909152205460ff1690565b6115e66118b7565b6001600160a01b03811661160f57604051631e4fbdf760e01b81525f6004820152602401610682565b610b5d816118e4565b5f818152600260205260408120546001600160a01b03168061056757604051637e27328960e01b815260048101849052602401610682565b61091f8383836001611ca6565b5f828152600260205260408120546001600160a01b039081169083161561168957611689818486611daa565b6001600160a01b038116156116c3576116a45f855f5f611ca6565b6001600160a01b0381165f90815260036020526040902080545f190190555b6001600160a01b038516156116f1576001600160a01b0385165f908152600360205260409020805460010190555b5f8481526002602052604080822080546001600160a01b0319166001600160a01b0389811691821790925591518793918516917fddf252ad1be2c89b69c2b068fc378daa952ba7f163c4a11628f55a4df523b3ef91a4949350505050565b60026007540361177257604051633ee5aeb560e01b815260040160405180910390fd5b6002600755565b5f818152600b60205260408120805482036117b05760405163c7bcc1b960e01b8152600160048201525f6024820152604401610682565b80545f9082906117c2906001906123de565b815481106117d2576117d2612404565b905f5260205f2001549050818054806117ed576117ed6125a4565b600190038181905f5260205f20015f905590558092505050919050565b6001600160a01b03821661183357604051633250574960e11b81525f6004820152602401610682565b5f61183f83835f61165d565b90506001600160a01b03811661186b57604051637e27328960e01b815260048101839052602401610682565b836001600160a01b0316816001600160a01b0316146106e5576040516364283d7b60e01b81526001600160a01b0380861660048301526024820184905282166044820152606401610682565b6006546001600160a01b03163314610bf45760405163118cdaa760e01b8152336004820152602401610682565b600680546001600160a01b038381166001600160a01b0319831681179093556040519116919082907f8be0079c531659141344cd1fd0a4f28419497f9722a3daafe3b4186f6b6457e0905f90a35050565b6001600160a01b03821661196757604051630b61174360e31b81526001600160a01b0383166004820152602401610682565b6001600160a01b038381165f81815260056020908152604080832094871680845294825291829020805460ff191686151590811790915591519182527f17307eab39ab6107e8899845ad3d59bd9653f200f220920489ca2b5937696c31910160405180910390a3505050565b6001600160a01b0382165f908152600a60205260408120905b81548110156106e55782828281548110611a0857611a08612404565b905f5260205f20015403611a855781548290611a26906001906123de565b81548110611a3657611a36612404565b905f5260205f200154828281548110611a5157611a51612404565b905f5260205f20018190555081805480611a6d57611a6d6125a4565b600190038181905f5260205f20015f905590556106e5565b6001016119ec565b6001600160a01b0383163b15611bae57604051630a85bd0160e11b81526001600160a01b0384169063150b7a0290611acf9088908890879087906004016125b8565b6020604051808303815f875af1925050508015611b09575060408051601f3d908101601f19168201909252611b06918101906125f4565b60015b611b70573d808015611b36576040519150601f19603f3d011682016040523d82523d5f602084013e611b3b565b606091505b5080515f03611b6857604051633250574960e11b81526001600160a01b0385166004820152602401610682565b805181602001fd5b6001600160e01b03198116630a85bd0160e11b14611bac57604051633250574960e11b81526001600160a01b0385166004820152602401610682565b505b5050505050565b60605f611bc183611e0e565b60010190505f8167ffffffffffffffff811115611be057611be06121bc565b6040519080825280601f01601f191660200182016040528015611c0a576020820181803683370190505b5090508181016020015b5f19016f181899199a1a9b1b9c1cb0b131b232b360811b600a86061a8153600a8504945084611c1457509392505050565b6001600160a01b038216611c6e57604051633250574960e11b81525f6004820152602401610682565b5f611c7a83835f61165d565b90506001600160a01b0381161561091f576040516339e3563760e11b81525f6004820152602401610682565b8080611cba57506001600160a01b03821615155b15611d7b575f611cc984611618565b90506001600160a01b03831615801590611cf55750826001600160a01b0316816001600160a01b031614155b8015611d085750611d0681846115b1565b155b15611d315760405163a9fbf51f60e01b81526001600160a01b0384166004820152602401610682565b8115611d795783856001600160a01b0316826001600160a01b03167f8c5be1e5ebec7d5bd14f71427d1e84f3dd0314c0f7b2291e5b200ac8c7c3b92560405160405180910390a45b505b50505f90815260046020526040902080546001600160a01b0319166001600160a01b0392909216919091179055565b611db5838383611ee5565b61091f576001600160a01b038316611de357604051637e27328960e01b815260048101829052602401610682565b60405163177e802f60e01b81526001600160a01b038316600482015260248101829052604401610682565b5f8072184f03e93ff9f4daa797ed6e38ed64bf6a1f0160401b8310611e4c5772184f03e93ff9f4daa797ed6e38ed64bf6a1f0160401b830492506040015b6d04ee2d6d415b85acef81000000008310611e78576d04ee2d6d415b85acef8100000000830492506020015b662386f26fc100008310611e9657662386f26fc10000830492506010015b6305f5e1008310611eae576305f5e100830492506008015b6127108310611ec257612710830492506004015b60648310611ed4576064830492506002015b600a83106105675760010192915050565b5f6001600160a01b03831615801590611f415750826001600160a01b0316846001600160a01b03161480611f1e5750611f1e84846115b1565b80611f4157505f828152600460205260409020546001600160a01b038481169116145b949350505050565b828054828255905f5260205f20908101928215611f82579160200282015b82811115611f82578251825591602001919060010190611f67565b50611f8e929150611f92565b5090565b5b80821115611f8e575f8155600101611f93565b6001600160e01b031981168114610b5d575f5ffd5b5f60208284031215611fcb575f5ffd5b81356111e781611fa6565b5f81518084528060208401602086015e5f602082860101526020601f19601f83011685010191505092915050565b602081525f6111e76020830184611fd6565b5f60208284031215612026575f5ffd5b5035919050565b80356001600160a01b0381168114612043575f5ffd5b919050565b5f5f60408385031215612059575f5ffd5b6120628361202d565b946020939093013593505050565b5f5f5f60608486031215612082575f5ffd5b61208b8461202d565b92506120996020850161202d565b929592945050506040919091013590565b5f5f604083850312156120bb575f5ffd5b50508035926020909101359150565b5f602082840312156120da575f5ffd5b6111e78261202d565b89815288602082015287604082015286606082015260018060a01b03861660808201528460a082015283151560c08201528260e08201526101206101008201525f612132610120830184611fd6565b9b9a5050505050505050505050565b602080825282518282018190525f918401906040840190835b8181101561217857835183526020938401939092019160010161215a565b509095945050505050565b5f5f60408385031215612194575f5ffd5b61219d8361202d565b9150602083013580151581146121b1575f5ffd5b809150509250929050565b634e487b7160e01b5f52604160045260245ffd5b5f5f5f5f608085870312156121e3575f5ffd5b6121ec8561202d565b93506121fa6020860161202d565b925060408501359150606085013567ffffffffffffffff81111561221c575f5ffd5b8501601f8101871361222c575f5ffd5b803567ffffffffffffffff811115612246576122466121bc565b604051601f8201601f19908116603f0116810167ffffffffffffffff81118282101715612275576122756121bc565b60405281815282820160200189101561228c575f5ffd5b816020840160208301375f6020838301015280935050505092959194509250565b5f5f5f5f5f5f5f60c0888a0312156122c3575f5ffd5b873596506020880135955060408801359450606088013593506080880135925060a088013567ffffffffffffffff8111156122fc575f5ffd5b8801601f81018a1361230c575f5ffd5b803567ffffffffffffffff811115612322575f5ffd5b8a6020828401011115612333575f5ffd5b602082019350809250505092959891949750929550565b5f5f6040838503121561235b575f5ffd5b6123648361202d565b91506123726020840161202d565b90509250929050565b600181811c9082168061238f57607f821691505b6020821081036123ad57634e487b7160e01b5f52602260045260245ffd5b50919050565b634e487b7160e01b5f52601160045260245ffd5b8082028115828204841417610567576105676123b3565b81810381811115610567576105676123b3565b80820180821115610567576105676123b3565b634e487b7160e01b5f52603260045260245ffd5b5f81518060208401855e5f93019283525090919050565b5f611f4161243d8386612418565b84612418565b5f8261245d57634e487b7160e01b5f52601260045260245ffd5b500490565b601f82111561091f57805f5260205f20601f840160051c810160208510156124875750805b601f840160051c820191505b81811015611bae575f8155600101612493565b815167ffffffffffffffff8111156124c0576124c06121bc565b6124d4816124ce845461237b565b84612462565b6020601f821160018114612506575f83156124ef5750848201515b5f19600385901b1c1916600184901b178455611bae565b5f84815260208120601f198516915b828110156125355787850151825560209485019460019092019101612515565b508482101561255257868401515f19600387901b60f8161c191681555b50505050600190811b01905550565b85815284602082015283604082015260806060820152816080820152818360a08301375f81830160a090810191909152601f909201601f19160101949350505050565b634e487b7160e01b5f52603160045260245ffd5b6001600160a01b03858116825284166020820152604081018390526080606082018190525f906125ea90830184611fd6565b9695505050505050565b5f60208284031215612604575f5ffd5b81516111e781611fa656fea26469706673582212200564c6671a5a7d93e59bc1c0c218e46c19a8d42058e2d3142e4b9b9d8525861664736f6c634300081c0033","linkReferences":{}},"methodIdentifiers":{"MIN_DEPOSIT()":"e1e158a5","MIN_LOCK_PERCENTAGE()":"6536c9ac","approve(address,uint256)":"095ea7b3","balanceOf(address)":"70a08231","calculateLockedCollateral(address)":"bb24b732","companyCollateral(address)":"366cbd52","createInvoiceToken(uint256,uint256,uint256,uint256,uint256,string)":"d88651b8","depositCollateral()":"6f758140","getApproved(uint256)":"081812fc","getPurchasedTokens(address)":"54ed08c8","invoices(uint256)":"4e6d1405","isApprovedForAll(address,address)":"e985e9c5","name()":"06fdde03","owner()":"8da5cb5b","ownerOf(uint256)":"6352211e","purchaseToken(uint256,uint256)":"301c5b90","redeemTokens(uint256)":"a6e158f8","renounceOwnership()":"715018a6","safeTransferFrom(address,address,uint256)":"42842e0e","safeTransferFrom(address,address,uint256,bytes)":"b88d4fde","setApprovalForAll(address,bool)":"a22cb465","supportsInterface(bytes4)":"01ffc9a7","symbol()":"95d89b41","tokenURI(uint256)":"c87b56dd","transferFrom(address,address,uint256)":"23b872dd","transferOwnership(address)":"f2fde38b","userPurchasedTokens(address,uint256)":"1e41e341","withdrawCollateral(uint256)":"6112fe2e"},"id":38}