{"abi":[{"type":"constructor","inputs":[],"stateMutability":"nonpayable"},{"type":"fallback","stateMutability":"payable"},{"type":"receive","stateMutability":"payable"},{"type":"function","name":"approve","inputs":[{"name":"to","type":"address","internalType":"address"},{"name":"tokenId","type":"uint256","internalType":"uint256"}],"outputs":[],"stateMutability":"nonpayable"},{"type":"function","name":"balanceOf","inputs":[{"name":"owner","type":"address","internalType":"address"}],"outputs":[{"name":"","type":"uint256","internalType":"uint256"}],"stateMutability":"view"},{"type":"function","name":"calculateLockedCollateral","inputs":[{"name":"_company","type":"address","internalType":"address"}],"outputs":[{"name":"lockedAmount","type":"uint256","internalType":"uint256"}],"stateMutability":"view"},{"type":"function","name":"companyCollateral","inputs":[{"name":"","type":"address","internalType":"address"}],"outputs":[{"name":"","type":"uint256","internalType":"uint256"}],"stateMutability":"view"},{"type":"function","name":"createInvoiceToken","inputs":[{"name":"_invoiceId","type":"uint256","internalType":"uint256"},{"name":"_totalInvoiceAmount","type":"uint256","internalType":"uint256"},{"name":"_tokenPrice","type":"uint256","internalType":"uint256"},{"name":"_tokensTotal","type":"uint256","internalType":"uint256"},{"name":"_maturityDate","type":"uint256","internalType":"uint256"},{"name":"_ipfsDocumentHash","type":"string","internalType":"string"}],"outputs":[],"stateMutability":"payable"},{"type":"function","name":"depositCollateral","inputs":[],"outputs":[],"stateMutability":"payable"},{"type":"function","name":"getApproved","inputs":[{"name":"tokenId","type":"uint256","internalType":"uint256"}],"outputs":[{"name":"","type":"address","internalType":"address"}],"stateMutability":"view"},{"type":"function","name":"invoices","inputs":[{"name":"","type":"uint256","internalType":"uint256"}],"outputs":[{"name":"totalInvoiceAmount","type":"uint256","internalType":"uint256"},{"name":"tokenPrice","type":"uint256","internalType":"uint256"},{"name":"tokensTotal","type":"uint256","internalType":"uint256"},{"name":"maturityDate","type":"uint256","internalType":"uint256"},{"name":"companyWallet","type":"address","internalType":"address"},{"name":"collateralDeposited","type":"uint256","internalType":"uint256"},{"name":"isActive","type":"bool","internalType":"bool"},{"name":"tokensRemaining","type":"uint256","internalType":"uint256"},{"name":"ipfsDocumentHash","type":"string","internalType":"string"}],"stateMutability":"view"},{"type":"function","name":"isApprovedForAll","inputs":[{"name":"owner","type":"address","internalType":"address"},{"name":"operator","type":"address","internalType":"address"}],"outputs":[{"name":"","type":"bool","internalType":"bool"}],"stateMutability":"view"},{"type":"function","name":"name","inputs":[],"outputs":[{"name":"","type":"string","internalType":"string"}],"stateMutability":"view"},{"type":"function","name":"owner","inputs":[],"outputs":[{"name":"","type":"address","internalType":"address"}],"stateMutability":"view"},{"type":"function","name":"ownerOf","inputs":[{"name":"tokenId","type":"uint256","internalType":"uint256"}],"outputs":[{"name":"","type":"address","internalType":"address"}],"stateMutability":"view"},{"type":"function","name":"purchaseToken","inputs":[{"name":"_invoiceId","type":"uint256","internalType":"uint256"},{"name":"_tokenAmount","type":"uint256","internalType":"uint256"}],"outputs":[],"stateMutability":"payable"},{"type":"function","name":"redeemTokens","inputs":[{"name":"_invoiceId","type":"uint256","internalType":"uint256"},{"name":"_tokenId","type":"uint256","internalType":"uint256"}],"outputs":[],"stateMutability":"nonpayable"},{"type":"function","name":"renounceOwnership","inputs":[],"outputs":[],"stateMutability":"nonpayable"},{"type":"function","name":"safeTransferFrom","inputs":[{"name":"from","type":"address","internalType":"address"},{"name":"to","type":"address","internalType":"address"},{"name":"tokenId","type":"uint256","internalType":"uint256"}],"outputs":[],"stateMutability":"nonpayable"},{"type":"function","name":"safeTransferFrom","inputs":[{"name":"from","type":"address","internalType":"address"},{"name":"to","type":"address","internalType":"address"},{"name":"tokenId","type":"uint256","internalType":"uint256"},{"name":"data","type":"bytes","internalType":"bytes"}],"outputs":[],"stateMutability":"nonpayable"},{"type":"function","name":"setApprovalForAll","inputs":[{"name":"operator","type":"address","internalType":"address"},{"name":"approved","type":"bool","internalType":"bool"}],"outputs":[],"stateMutability":"nonpayable"},{"type":"function","name":"supportsInterface","inputs":[{"name":"interfaceId","type":"bytes4","internalType":"bytes4"}],"outputs":[{"name":"","type":"bool","internalType":"bool"}],"stateMutability":"view"},{"type":"function","name":"symbol","inputs":[],"outputs":[{"name":"","type":"string","internalType":"string"}],"stateMutability":"view"},{"type":"function","name":"tokenURI","inputs":[{"name":"tokenId","type":"uint256","internalType":"uint256"}],"outputs":[{"name":"","type":"string","internalType":"string"}],"stateMutability":"view"},{"type":"function","name":"transferFrom","inputs":[{"name":"from","type":"address","internalType":"address"},{"name":"to","type":"address","internalType":"address"},{"name":"tokenId","type":"uint256","internalType":"uint256"}],"outputs":[],"stateMutability":"nonpayable"},{"type":"function","name":"transferOwnership","inputs":[{"name":"newOwner","type":"address","internalType":"address"}],"outputs":[],"stateMutability":"nonpayable"},{"type":"function","name":"withdrawCollateral","inputs":[{"name":"_amount","type":"uint256","internalType":"uint256"}],"outputs":[],"stateMutability":"nonpayable"},{"type":"event","name":"Approval","inputs":[{"name":"owner","type":"address","indexed":true,"internalType":"address"},{"name":"approved","type":"address","indexed":true,"internalType":"address"},{"name":"tokenId","type":"uint256","indexed":true,"internalType":"uint256"}],"anonymous":false},{"type":"event","name":"ApprovalForAll","inputs":[{"name":"owner","type":"address","indexed":true,"internalType":"address"},{"name":"operator","type":"address","indexed":true,"internalType":"address"},{"name":"approved","type":"bool","indexed":false,"internalType":"bool"}],"anonymous":false},{"type":"event","name":"CollateralDeposited","inputs":[{"name":"company","type":"address","indexed":true,"internalType":"address"},{"name":"amount","type":"uint256","indexed":false,"internalType":"uint256"}],"anonymous":false},{"type":"event","name":"CollateralWithdrawn","inputs":[{"name":"company","type":"address","indexed":true,"internalType":"address"},{"name":"amount","type":"uint256","indexed":false,"internalType":"uint256"}],"anonymous":false},{"type":"event","name":"InvoiceTokenCreated","inputs":[{"name":"tokenId","type":"uint256","indexed":true,"internalType":"uint256"},{"name":"totalAmount","type":"uint256","indexed":false,"internalType":"uint256"},{"name":"tokenPrice","type":"uint256","indexed":false,"internalType":"uint256"},{"name":"tokensTotal","type":"uint256","indexed":false,"internalType":"uint256"},{"name":"ipfsDocumentHash","type":"string","indexed":false,"internalType":"string"}],"anonymous":false},{"type":"event","name":"InvoiceTokenPurchased","inputs":[{"name":"tokenId","type":"uint256","indexed":true,"internalType":"uint256"},{"name":"buyer","type":"address","indexed":true,"internalType":"address"},{"name":"tokenAmount","type":"uint256","indexed":false,"internalType":"uint256"},{"name":"paymentAmount","type":"uint256","indexed":false,"internalType":"uint256"}],"anonymous":false},{"type":"event","name":"OwnershipTransferred","inputs":[{"name":"previousOwner","type":"address","indexed":true,"internalType":"address"},{"name":"newOwner","type":"address","indexed":true,"internalType":"address"}],"anonymous":false},{"type":"event","name":"TokensRedeemed","inputs":[{"name":"tokenId","type":"uint256","indexed":true,"internalType":"uint256"},{"name":"user","type":"address","indexed":true,"internalType":"address"},{"name":"tokenAmount","type":"uint256","indexed":false,"internalType":"uint256"},{"name":"redemptionAmount","type":"uint256","indexed":false,"internalType":"uint256"}],"anonymous":false},{"type":"event","name":"Transfer","inputs":[{"name":"from","type":"address","indexed":true,"internalType":"address"},{"name":"to","type":"address","indexed":true,"internalType":"address"},{"name":"tokenId","type":"uint256","indexed":true,"internalType":"uint256"}],"anonymous":false},{"type":"error","name":"ERC721IncorrectOwner","inputs":[{"name":"sender","type":"address","internalType":"address"},{"name":"tokenId","type":"uint256","internalType":"uint256"},{"name":"owner","type":"address","internalType":"address"}]},{"type":"error","name":"ERC721InsufficientApproval","inputs":[{"name":"operator","type":"address","internalType":"address"},{"name":"tokenId","type":"uint256","internalType":"uint256"}]},{"type":"error","name":"ERC721InvalidApprover","inputs":[{"name":"approver","type":"address","internalType":"address"}]},{"type":"error","name":"ERC721InvalidOperator","inputs":[{"name":"operator","type":"address","internalType":"address"}]},{"type":"error","name":"ERC721InvalidOwner","inputs":[{"name":"owner","type":"address","internalType":"address"}]},{"type":"error","name":"ERC721InvalidReceiver","inputs":[{"name":"receiver","type":"address","internalType":"address"}]},{"type":"error","name":"ERC721InvalidSender","inputs":[{"name":"sender","type":"address","internalType":"address"}]},{"type":"error","name":"ERC721NonexistentToken","inputs":[{"name":"tokenId","type":"uint256","internalType":"uint256"}]},{"type":"error","name":"IncorrectPaymentAmount","inputs":[{"name":"sent","type":"uint256","internalType":"uint256"},{"name":"expected","type":"uint256","internalType":"uint256"}]},{"type":"error","name":"InsufficientCollateral","inputs":[{"name":"available","type":"uint256","internalType":"uint256"},{"name":"required","type":"uint256","internalType":"uint256"}]},{"type":"error","name":"InsufficientFreeCollateral","inputs":[{"name":"available","type":"uint256","internalType":"uint256"},{"name":"required","type":"uint256","internalType":"uint256"}]},{"type":"error","name":"InsufficientFundsToRedeem","inputs":[{"name":"company","type":"address","internalType":"address"},{"name":"investor","type":"address","internalType":"address"},{"name":"amount","type":"uint256","internalType":"uint256"}]},{"type":"error","name":"InsufficientTokens","inputs":[{"name":"requested","type":"uint256","internalType":"uint256"},{"name":"available","type":"uint256","internalType":"uint256"}]},{"type":"error","name":"InvalidCollateralAmount","inputs":[]},{"type":"error","name":"InvalidInvoiceAmount","inputs":[{"name":"amount","type":"uint256","internalType":"uint256"}]},{"type":"error","name":"InvalidMaturityDate","inputs":[{"name":"currentTimestamp","type":"uint256","internalType":"uint256"},{"name":"maturityDate","type":"uint256","internalType":"uint256"}]},{"type":"error","name":"InvalidTokenPrice","inputs":[{"name":"price","type":"uint256","internalType":"uint256"}]},{"type":"error","name":"InvalidTokensToBuy","inputs":[{"name":"amount","type":"uint256","internalType":"uint256"}]},{"type":"error","name":"InvoiceNotActive","inputs":[{"name":"invoiceId","type":"uint256","internalType":"uint256"}]},{"type":"error","name":"MissingIPFSHash","inputs":[]},{"type":"error","name":"OwnableInvalidOwner","inputs":[{"name":"owner","type":"address","internalType":"address"}]},{"type":"error","name":"OwnableUnauthorizedAccount","inputs":[{"name":"account","type":"address","internalType":"address"}]},{"type":"error","name":"RedemptionPaymentTransferFailed","inputs":[{"name":"companyWallet","type":"address","internalType":"address"},{"name":"buyer","type":"address","internalType":"address"},{"name":"amount","type":"uint256","internalType":"uint256"}]},{"type":"error","name":"ReentrancyGuardReentrantCall","inputs":[]},{"type":"error","name":"TokenPaymentTransferFailed","inputs":[{"name":"companyWallet","type":"address","internalType":"address"},{"name":"buyer","type":"address","internalType":"address"},{"name":"amount","type":"uint256","internalType":"uint256"}]}],"bytecode":{"object":"0x608060405234801561000f575f5ffd5b50336040518060400160405280601581526020017f496e766f69636546696e616e63696e67546f6b656e00000000000000000000008152506040518060400160405280600381526020016212519560ea1b815250815f908161007191906101ab565b50600161007e82826101ab565b5050506001600160a01b0381166100ae57604051631e4fbdf760e01b81525f600482015260240160405180910390fd5b6100b7816100c2565b506001600755610265565b600680546001600160a01b038381166001600160a01b0319831681179093556040519116919082907f8be0079c531659141344cd1fd0a4f28419497f9722a3daafe3b4186f6b6457e0905f90a35050565b634e487b7160e01b5f52604160045260245ffd5b600181811c9082168061013b57607f821691505b60208210810361015957634e487b7160e01b5f52602260045260245ffd5b50919050565b601f8211156101a657805f5260205f20601f840160051c810160208510156101845750805b601f840160051c820191505b818110156101a3575f8155600101610190565b50505b505050565b81516001600160401b038111156101c4576101c4610113565b6101d8816101d28454610127565b8461015f565b6020601f82116001811461020a575f83156101f35750848201515b5f19600385901b1c1916600184901b1784556101a3565b5f84815260208120601f198516915b828110156102395787850151825560209485019460019092019101610219565b508482101561025657868401515f19600387901b60f8161c191681555b50505050600190811b01905550565b612204806102725f395ff3fe608060405260043610610141575f3560e01c806370a08231116100af578063b88d4fde1161006b578063b88d4fde14610394578063bb24b732146103b3578063c87b56dd146103d2578063d88651b8146103f1578063e985e9c514610404578063f2fde38b1461042357005b806370a08231146102f2578063715018a6146103115780638da5cb5b1461032557806395d89b41146103425780639929ede414610356578063a22cb4651461037557005b8063366cbd52116100fe578063366cbd521461022057806342842e0e146102595780634e6d1405146102785780636112fe2e146102ac5780636352211e146102cb5780636f758140146102ea57005b806301ffc9a71461014357806306fdde0314610177578063081812fc14610198578063095ea7b3146101cf57806323b872dd146101ee578063301c5b901461020d575b005b34801561014e575f5ffd5b5061016261015d366004611bbc565b610442565b60405190151581526020015b60405180910390f35b348015610182575f5ffd5b5061018b610493565b60405161016e9190611c05565b3480156101a3575f5ffd5b506101b76101b2366004611c17565b610522565b6040516001600160a01b03909116815260200161016e565b3480156101da575f5ffd5b506101416101e9366004611c49565b610549565b3480156101f9575f5ffd5b50610141610208366004611c71565b610558565b61014161021b366004611cab565b6105e6565b34801561022b575f5ffd5b5061024b61023a366004611ccb565b60096020525f908152604090205481565b60405190815260200161016e565b348015610264575f5ffd5b50610141610273366004611c71565b6107de565b348015610283575f5ffd5b50610297610292366004611c17565b6107fd565b60405161016e99989796959493929190611ce4565b3480156102b7575f5ffd5b506101416102c6366004611c17565b6108df565b3480156102d6575f5ffd5b506101b76102e5366004611c17565b6109d0565b6101416109da565b3480156102fd575f5ffd5b5061024b61030c366004611ccb565b610a66565b34801561031c575f5ffd5b50610141610aab565b348015610330575f5ffd5b506006546001600160a01b03166101b7565b34801561034d575f5ffd5b5061018b610abc565b348015610361575f5ffd5b50610141610370366004611cab565b610acb565b348015610380575f5ffd5b5061014161038f366004611d42565b610c74565b34801561039f575f5ffd5b506101416103ae366004611d8f565b610c7f565b3480156103be575f5ffd5b5061024b6103cd366004611ccb565b610c97565b3480156103dd575f5ffd5b5061018b6103ec366004611c17565b610e60565b6101416103ff366004611e6c565b610ed1565b34801561040f575f5ffd5b5061016261041e366004611f09565b61120f565b34801561042e575f5ffd5b5061014161043d366004611ccb565b61123c565b5f6001600160e01b031982166380ac58cd60e01b148061047257506001600160e01b03198216635b5e139f60e01b145b8061048d57506301ffc9a760e01b6001600160e01b03198316145b92915050565b60605f80546104a190611f3a565b80601f01602080910402602001604051908101604052809291908181526020018280546104cd90611f3a565b80156105185780601f106104ef57610100808354040283529160200191610518565b820191905f5260205f20905b8154815290600101906020018083116104fb57829003601f168201915b5050505050905090565b5f61052c82611276565b505f828152600460205260409020546001600160a01b031661048d565b6105548282336112ae565b5050565b6001600160a01b03821661058657604051633250574960e11b81525f60048201526024015b60405180910390fd5b5f6105928383336112bb565b9050836001600160a01b0316816001600160a01b0316146105e0576040516364283d7b60e01b81526001600160a01b038086166004830152602482018490528216604482015260640161057d565b50505050565b6105ee6113ad565b5f828152600860205260409020600681015460ff161580610613575080600301544210155b1561063457604051631e9f000d60e21b81526004810184905260240161057d565b60018101546106439083611f86565b341461067c573481600101548361065a9190611f86565b6040516311ebdab360e21b81526004810192909252602482015260440161057d565b80600701548211156106b157600781015460405163c7bcc1b960e01b815261057d918491600401918252602082015260400190565b81816007015f8282546106c49190611f9d565b909155505f90505b82811015610703575f6106de856113d7565b60048401549091506106fa906001600160a01b03163383611468565b506001016106cc565b5060048101546040515f916001600160a01b03169034908381818185875af1925050503d805f8114610750576040519150601f19603f3d011682016040523d82523d5f602084013e610755565b606091505b50509050806107965760048281015460405162103ef760ea1b81526001600160a01b039091169181019190915233602482015234604482015260640161057d565b60408051848152346020820152339186917f726707221b1397ea93462b58bb2f45ac536dd9b426c3b3647f18f27f439a2dbf910160405180910390a350506105546001600755565b6107f883838360405180602001604052805f815250610c7f565b505050565b600860208190525f918252604090912080546001820154600283015460038401546004850154600586015460068701546007880154988801805497999698959794966001600160a01b0390941695929460ff90921693929161085e90611f3a565b80601f016020809104026020016040519081016040528092919081815260200182805461088a90611f3a565b80156108d55780601f106108ac576101008083540402835291602001916108d5565b820191905f5260205f20905b8154815290600101906020018083116108b857829003601f168201915b5050505050905089565b6108e76113ad565b805f6108f233610c97565b335f9081526009602052604081205491925090610910908390611f9d565b90508281101561093d57604051632c1f8ef160e21b8152600481018290526024810184905260440161057d565b335f908152600960205260408120805486929061095b908490611f9d565b9091555050604051339085156108fc029086905f818181858888f1935050505015801561098a573d5f5f3e3d5ffd5b5060405184815233907fc30fcfbcaac9e0deffa719714eaa82396ff506a0d0d0eebe170830177288715d9060200160405180910390a25050506109cd6001600755565b50565b5f61048d82611276565b6109e26113ad565b345f03610a025760405163fbd85bc360e01b815260040160405180910390fd5b335f9081526009602052604081208054349290610a20908490611fb0565b909155505060405134815233907fd7243f6f8212d5188fd054141cf6ea89cfc0d91facb8c3afe2f88a13584801429060200160405180910390a2610a646001600755565b565b5f6001600160a01b038216610a90576040516322718ad960e21b81525f600482015260240161057d565b506001600160a01b03165f9081526003602052604090205490565b610ab3611515565b610a645f611542565b6060600180546104a190611f3a565b610ad36113ad565b5f8281526008602052604090206003810154421015610b14576003810154604051631943ae1760e31b8152426004820152602481019190915260440161057d565b5f81600101548260020154610b299190611f86565b905080471015610b6d5760048281015460405163f91e1f0760e01b81526001600160a01b03909116918101919091523360248201526044810182905260640161057d565b60068201805460ff191690556004820154610b91906001600160a01b031684611593565b60048201546040515f916001600160a01b03169083908381818185875af1925050503d805f8114610bdd576040519150601f19603f3d011682016040523d82523d5f602084013e610be2565b606091505b5050905080610c2557600483810154604051635b83b6e160e01b81526001600160a01b03909116918101919091523360248201526044810183905260640161057d565b60028301546040805191825260208201849052339187917f887d2394d1ad324612a23b35bba07e9d9d2a3401acf775233b363f69e9caacf9910160405180910390a35050506105546001600755565b61055433838361164d565b610c8a848484610558565b6105e033858585856116eb565b6001600160a01b0381165f908152600a6020908152604080832080548251818502810185019093528083528493830182828015610cf157602002820191905f5260205f20905b815481526020019060010190808311610cdd575b509394505f93505050505b8151811015610e59575f60085f848481518110610d1b57610d1b611fc3565b60209081029190910181015182528181019290925260409081015f20815161012081018352815481526001820154938101939093526002810154918301919091526003810154606083015260048101546001600160a01b03166080830152600581015460a0830152600681015460ff16151560c0830152600781015460e083015260088101805461010084019190610db290611f3a565b80601f0160208091040260200160405190810160405280929190818152602001828054610dde90611f3a565b8015610e295780601f10610e0057610100808354040283529160200191610e29565b820191905f5260205f20905b815481529060010190602001808311610e0c57829003601f168201915b50505050508152505090508060c0015115610e505760a0810151610e4d9085611fb0565b93505b50600101610cfc565b5050919050565b6060610e6b82611276565b505f610e8160408051602081019091525f815290565b90505f815111610e9f5760405180602001604052805f815250610eca565b80610ea984611813565b604051602001610eba929190611fee565b6040516020818303038152906040525b9392505050565b610ed96113ad565b855f03610efc576040516310d34d9b60e31b81526004810187905260240161057d565b845f03610f1f5760405163820f079560e01b81526004810186905260240161057d565b835f03610f4257604051632c949d6160e01b81526004810185905260240161057d565b428311610f6b57604051631943ae1760e31b81524260048201526024810184905260440161057d565b5f819003610f8c5760405163cd93a64160e01b815260040160405180910390fd5b5f6064610f998688611f86565b610fa4906050611f86565b610fae9190612002565b90505f610fba33610c97565b335f90815260096020526040902054610fd39190611f9d565b90508181101561100057604051632c1f8ef160e21b8152600481018290526024810183905260440161057d565b335f908152600960205260408120805484929061101e908490611f9d565b92505081905550604051806101200160405280898152602001888152602001878152602001868152602001336001600160a01b0316815260200183815260200160011515815260200187815260200185858080601f0160208091040260200160405190810160405280939291908181526020018383808284375f9201829052509390945250508b815260086020818152604092839020855181559085015160018201559184015160028301556060840151600383015560808401516004830180546001600160a01b0319166001600160a01b0390921691909117905560a0840151600583015560c084015160068301805460ff191691151591909117905560e0840151600783015561010084015191925082019061113c9082612065565b505f9150505b86811015611198575f816111598c620f4240611f86565b6111639190611fb0565b905061116f33826118a3565b5f8b8152600b602090815260408220805460018101825590835291200181905550600101611142565b50335f908152600a6020908152604082208054600181018255908352912001899055887ffe45ceffbdf47bd47a5f6bae93b3b6474930aa871228eb8822e0d8f166c5a7d989898988886040516111f2959493929190612120565b60405180910390a250506112066001600755565b50505050505050565b6001600160a01b039182165f90815260056020908152604080832093909416825291909152205460ff1690565b611244611515565b6001600160a01b03811661126d57604051631e4fbdf760e01b81525f600482015260240161057d565b6109cd81611542565b5f818152600260205260408120546001600160a01b03168061048d57604051637e27328960e01b81526004810184905260240161057d565b6107f88383836001611904565b5f828152600260205260408120546001600160a01b03908116908316156112e7576112e7818486611a08565b6001600160a01b03811615611321576113025f855f5f611904565b6001600160a01b0381165f90815260036020526040902080545f190190555b6001600160a01b0385161561134f576001600160a01b0385165f908152600360205260409020805460010190555b5f8481526002602052604080822080546001600160a01b0319166001600160a01b0389811691821790925591518793918516917fddf252ad1be2c89b69c2b068fc378daa952ba7f163c4a11628f55a4df523b3ef91a4949350505050565b6002600754036113d057604051633ee5aeb560e01b815260040160405180910390fd5b6002600755565b5f818152600b602052604081208054820361140e5760405163c7bcc1b960e01b8152600160048201525f602482015260440161057d565b80545f90829061142090600190611f9d565b8154811061143057611430611fc3565b905f5260205f20015490508180548061144b5761144b612163565b600190038181905f5260205f20015f905590558092505050919050565b6001600160a01b03821661149157604051633250574960e11b81525f600482015260240161057d565b5f61149d83835f6112bb565b90506001600160a01b0381166114c957604051637e27328960e01b81526004810183905260240161057d565b836001600160a01b0316816001600160a01b0316146105e0576040516364283d7b60e01b81526001600160a01b038086166004830152602482018490528216604482015260640161057d565b6006546001600160a01b03163314610a645760405163118cdaa760e01b815233600482015260240161057d565b600680546001600160a01b038381166001600160a01b0319831681179093556040519116919082907f8be0079c531659141344cd1fd0a4f28419497f9722a3daafe3b4186f6b6457e0905f90a35050565b6001600160a01b0382165f908152600a60205260408120905b81548110156105e057828282815481106115c8576115c8611fc3565b905f5260205f2001540361164557815482906115e690600190611f9d565b815481106115f6576115f6611fc3565b905f5260205f20015482828154811061161157611611611fc3565b905f5260205f2001819055508180548061162d5761162d612163565b600190038181905f5260205f20015f905590556105e0565b6001016115ac565b6001600160a01b03821661167f57604051630b61174360e31b81526001600160a01b038316600482015260240161057d565b6001600160a01b038381165f81815260056020908152604080832094871680845294825291829020805460ff191686151590811790915591519182527f17307eab39ab6107e8899845ad3d59bd9653f200f220920489ca2b5937696c31910160405180910390a3505050565b6001600160a01b0383163b1561180c57604051630a85bd0160e11b81526001600160a01b0384169063150b7a029061172d908890889087908790600401612177565b6020604051808303815f875af1925050508015611767575060408051601f3d908101601f19168201909252611764918101906121b3565b60015b6117ce573d808015611794576040519150601f19603f3d011682016040523d82523d5f602084013e611799565b606091505b5080515f036117c657604051633250574960e11b81526001600160a01b038516600482015260240161057d565b805181602001fd5b6001600160e01b03198116630a85bd0160e11b1461180a57604051633250574960e11b81526001600160a01b038516600482015260240161057d565b505b5050505050565b60605f61181f83611a6c565b60010190505f8167ffffffffffffffff81111561183e5761183e611d7b565b6040519080825280601f01601f191660200182016040528015611868576020820181803683370190505b5090508181016020015b5f19016f181899199a1a9b1b9c1cb0b131b232b360811b600a86061a8153600a850494508461187257509392505050565b6001600160a01b0382166118cc57604051633250574960e11b81525f600482015260240161057d565b5f6118d883835f6112bb565b90506001600160a01b038116156107f8576040516339e3563760e11b81525f600482015260240161057d565b808061191857506001600160a01b03821615155b156119d9575f61192784611276565b90506001600160a01b038316158015906119535750826001600160a01b0316816001600160a01b031614155b80156119665750611964818461120f565b155b1561198f5760405163a9fbf51f60e01b81526001600160a01b038416600482015260240161057d565b81156119d75783856001600160a01b0316826001600160a01b03167f8c5be1e5ebec7d5bd14f71427d1e84f3dd0314c0f7b2291e5b200ac8c7c3b92560405160405180910390a45b505b50505f90815260046020526040902080546001600160a01b0319166001600160a01b0392909216919091179055565b611a13838383611b43565b6107f8576001600160a01b038316611a4157604051637e27328960e01b81526004810182905260240161057d565b60405163177e802f60e01b81526001600160a01b03831660048201526024810182905260440161057d565b5f8072184f03e93ff9f4daa797ed6e38ed64bf6a1f0160401b8310611aaa5772184f03e93ff9f4daa797ed6e38ed64bf6a1f0160401b830492506040015b6d04ee2d6d415b85acef81000000008310611ad6576d04ee2d6d415b85acef8100000000830492506020015b662386f26fc100008310611af457662386f26fc10000830492506010015b6305f5e1008310611b0c576305f5e100830492506008015b6127108310611b2057612710830492506004015b60648310611b32576064830492506002015b600a831061048d5760010192915050565b5f6001600160a01b03831615801590611b9f5750826001600160a01b0316846001600160a01b03161480611b7c5750611b7c848461120f565b80611b9f57505f828152600460205260409020546001600160a01b038481169116145b949350505050565b6001600160e01b0319811681146109cd575f5ffd5b5f60208284031215611bcc575f5ffd5b8135610eca81611ba7565b5f81518084528060208401602086015e5f602082860101526020601f19601f83011685010191505092915050565b602081525f610eca6020830184611bd7565b5f60208284031215611c27575f5ffd5b5035919050565b80356001600160a01b0381168114611c44575f5ffd5b919050565b5f5f60408385031215611c5a575f5ffd5b611c6383611c2e565b946020939093013593505050565b5f5f5f60608486031215611c83575f5ffd5b611c8c84611c2e565b9250611c9a60208501611c2e565b929592945050506040919091013590565b5f5f60408385031215611cbc575f5ffd5b50508035926020909101359150565b5f60208284031215611cdb575f5ffd5b610eca82611c2e565b89815288602082015287604082015286606082015260018060a01b03861660808201528460a082015283151560c08201528260e08201526101206101008201525f611d33610120830184611bd7565b9b9a5050505050505050505050565b5f5f60408385031215611d53575f5ffd5b611d5c83611c2e565b915060208301358015158114611d70575f5ffd5b809150509250929050565b634e487b7160e01b5f52604160045260245ffd5b5f5f5f5f60808587031215611da2575f5ffd5b611dab85611c2e565b9350611db960208601611c2e565b925060408501359150606085013567ffffffffffffffff811115611ddb575f5ffd5b8501601f81018713611deb575f5ffd5b803567ffffffffffffffff811115611e0557611e05611d7b565b604051601f8201601f19908116603f0116810167ffffffffffffffff81118282101715611e3457611e34611d7b565b604052818152828201602001891015611e4b575f5ffd5b816020840160208301375f6020838301015280935050505092959194509250565b5f5f5f5f5f5f5f60c0888a031215611e82575f5ffd5b873596506020880135955060408801359450606088013593506080880135925060a088013567ffffffffffffffff811115611ebb575f5ffd5b8801601f81018a13611ecb575f5ffd5b803567ffffffffffffffff811115611ee1575f5ffd5b8a6020828401011115611ef2575f5ffd5b602082019350809250505092959891949750929550565b5f5f60408385031215611f1a575f5ffd5b611f2383611c2e565b9150611f3160208401611c2e565b90509250929050565b600181811c90821680611f4e57607f821691505b602082108103611f6c57634e487b7160e01b5f52602260045260245ffd5b50919050565b634e487b7160e01b5f52601160045260245ffd5b808202811582820484141761048d5761048d611f72565b8181038181111561048d5761048d611f72565b8082018082111561048d5761048d611f72565b634e487b7160e01b5f52603260045260245ffd5b5f81518060208401855e5f93019283525090919050565b5f611b9f611ffc8386611fd7565b84611fd7565b5f8261201c57634e487b7160e01b5f52601260045260245ffd5b500490565b601f8211156107f857805f5260205f20601f840160051c810160208510156120465750805b601f840160051c820191505b8181101561180c575f8155600101612052565b815167ffffffffffffffff81111561207f5761207f611d7b565b6120938161208d8454611f3a565b84612021565b6020601f8211600181146120c5575f83156120ae5750848201515b5f19600385901b1c1916600184901b17845561180c565b5f84815260208120601f198516915b828110156120f457878501518255602094850194600190920191016120d4565b508482101561211157868401515f19600387901b60f8161c191681555b50505050600190811b01905550565b85815284602082015283604082015260806060820152816080820152818360a08301375f81830160a090810191909152601f909201601f19160101949350505050565b634e487b7160e01b5f52603160045260245ffd5b6001600160a01b03858116825284166020820152604081018390526080606082018190525f906121a990830184611bd7565b9695505050505050565b5f602082840312156121c3575f5ffd5b8151610eca81611ba756fea26469706673582212209cc5639768460b9a0f93c9edbfb483e18983fdca2d63eae4c352cfe30ef39a2f64736f6c634300081c0033","linkReferences":{}},"methodIdentifiers":{"approve(address,uint256)":"095ea7b3","balanceOf(address)":"70a08231","calculateLockedCollateral(address)":"bb24b732","companyCollateral(address)":"366cbd52","createInvoiceToken(uint256,uint256,uint256,uint256,uint256,string)":"d88651b8","depositCollateral()":"6f758140","getApproved(uint256)":"081812fc","invoices(uint256)":"4e6d1405","isApprovedForAll(address,address)":"e985e9c5","name()":"06fdde03","owner()":"8da5cb5b","ownerOf(uint256)":"6352211e","purchaseToken(uint256,uint256)":"301c5b90","redeemTokens(uint256,uint256)":"9929ede4","renounceOwnership()":"715018a6","safeTransferFrom(address,address,uint256)":"42842e0e","safeTransferFrom(address,address,uint256,bytes)":"b88d4fde","setApprovalForAll(address,bool)":"a22cb465","supportsInterface(bytes4)":"01ffc9a7","symbol()":"95d89b41","tokenURI(uint256)":"c87b56dd","transferFrom(address,address,uint256)":"23b872dd","transferOwnership(address)":"f2fde38b","withdrawCollateral(uint256)":"6112fe2e"},"id":38}