{"abi":[{"type":"constructor","inputs":[],"stateMutability":"nonpayable"},{"type":"fallback","stateMutability":"payable"},{"type":"receive","stateMutability":"payable"},{"type":"function","name":"approve","inputs":[{"name":"to","type":"address","internalType":"address"},{"name":"tokenId","type":"uint256","internalType":"uint256"}],"outputs":[],"stateMutability":"nonpayable"},{"type":"function","name":"balanceOf","inputs":[{"name":"owner","type":"address","internalType":"address"}],"outputs":[{"name":"","type":"uint256","internalType":"uint256"}],"stateMutability":"view"},{"type":"function","name":"calculateLockedCollateral","inputs":[{"name":"_company","type":"address","internalType":"address"}],"outputs":[{"name":"","type":"uint256","internalType":"uint256"}],"stateMutability":"view"},{"type":"function","name":"companyCollateral","inputs":[{"name":"","type":"address","internalType":"address"}],"outputs":[{"name":"","type":"uint256","internalType":"uint256"}],"stateMutability":"view"},{"type":"function","name":"createInvoiceNFT","inputs":[{"name":"_invoiceId","type":"uint256","internalType":"uint256"},{"name":"_totalInvoiceAmount","type":"uint256","internalType":"uint256"},{"name":"_tokenPrice","type":"uint256","internalType":"uint256"},{"name":"_tokensTotal","type":"uint256","internalType":"uint256"},{"name":"_maturityDate","type":"uint256","internalType":"uint256"},{"name":"_ipfsDocumentHash","type":"string","internalType":"string"}],"outputs":[],"stateMutability":"payable"},{"type":"function","name":"depositCollateral","inputs":[],"outputs":[],"stateMutability":"payable"},{"type":"function","name":"getApproved","inputs":[{"name":"tokenId","type":"uint256","internalType":"uint256"}],"outputs":[{"name":"","type":"address","internalType":"address"}],"stateMutability":"view"},{"type":"function","name":"invoices","inputs":[{"name":"","type":"uint256","internalType":"uint256"}],"outputs":[{"name":"totalInvoiceAmount","type":"uint256","internalType":"uint256"},{"name":"tokenPrice","type":"uint256","internalType":"uint256"},{"name":"tokensTotal","type":"uint256","internalType":"uint256"},{"name":"maturityDate","type":"uint256","internalType":"uint256"},{"name":"companyWallet","type":"address","internalType":"address"},{"name":"collateralDeposited","type":"uint256","internalType":"uint256"},{"name":"isActive","type":"bool","internalType":"bool"},{"name":"tokensRemaining","type":"uint256","internalType":"uint256"},{"name":"ipfsDocumentHash","type":"string","internalType":"string"}],"stateMutability":"view"},{"type":"function","name":"isApprovedForAll","inputs":[{"name":"owner","type":"address","internalType":"address"},{"name":"operator","type":"address","internalType":"address"}],"outputs":[{"name":"","type":"bool","internalType":"bool"}],"stateMutability":"view"},{"type":"function","name":"name","inputs":[],"outputs":[{"name":"","type":"string","internalType":"string"}],"stateMutability":"view"},{"type":"function","name":"owner","inputs":[],"outputs":[{"name":"","type":"address","internalType":"address"}],"stateMutability":"view"},{"type":"function","name":"ownerOf","inputs":[{"name":"tokenId","type":"uint256","internalType":"uint256"}],"outputs":[{"name":"","type":"address","internalType":"address"}],"stateMutability":"view"},{"type":"function","name":"purchaseNFT","inputs":[{"name":"_tokenId","type":"uint256","internalType":"uint256"},{"name":"_tokenAmount","type":"uint256","internalType":"uint256"}],"outputs":[],"stateMutability":"payable"},{"type":"function","name":"redeemNFTTokens","inputs":[{"name":"_tokenId","type":"uint256","internalType":"uint256"}],"outputs":[],"stateMutability":"nonpayable"},{"type":"function","name":"renounceOwnership","inputs":[],"outputs":[],"stateMutability":"nonpayable"},{"type":"function","name":"safeTransferFrom","inputs":[{"name":"from","type":"address","internalType":"address"},{"name":"to","type":"address","internalType":"address"},{"name":"tokenId","type":"uint256","internalType":"uint256"}],"outputs":[],"stateMutability":"nonpayable"},{"type":"function","name":"safeTransferFrom","inputs":[{"name":"from","type":"address","internalType":"address"},{"name":"to","type":"address","internalType":"address"},{"name":"tokenId","type":"uint256","internalType":"uint256"},{"name":"data","type":"bytes","internalType":"bytes"}],"outputs":[],"stateMutability":"nonpayable"},{"type":"function","name":"setApprovalForAll","inputs":[{"name":"operator","type":"address","internalType":"address"},{"name":"approved","type":"bool","internalType":"bool"}],"outputs":[],"stateMutability":"nonpayable"},{"type":"function","name":"supportsInterface","inputs":[{"name":"interfaceId","type":"bytes4","internalType":"bytes4"}],"outputs":[{"name":"","type":"bool","internalType":"bool"}],"stateMutability":"view"},{"type":"function","name":"symbol","inputs":[],"outputs":[{"name":"","type":"string","internalType":"string"}],"stateMutability":"view"},{"type":"function","name":"tokenURI","inputs":[{"name":"tokenId","type":"uint256","internalType":"uint256"}],"outputs":[{"name":"","type":"string","internalType":"string"}],"stateMutability":"view"},{"type":"function","name":"transferFrom","inputs":[{"name":"from","type":"address","internalType":"address"},{"name":"to","type":"address","internalType":"address"},{"name":"tokenId","type":"uint256","internalType":"uint256"}],"outputs":[],"stateMutability":"nonpayable"},{"type":"function","name":"transferOwnership","inputs":[{"name":"newOwner","type":"address","internalType":"address"}],"outputs":[],"stateMutability":"nonpayable"},{"type":"function","name":"withdrawCollateral","inputs":[{"name":"_amount","type":"uint256","internalType":"uint256"}],"outputs":[],"stateMutability":"nonpayable"},{"type":"event","name":"Approval","inputs":[{"name":"owner","type":"address","indexed":true,"internalType":"address"},{"name":"approved","type":"address","indexed":true,"internalType":"address"},{"name":"tokenId","type":"uint256","indexed":true,"internalType":"uint256"}],"anonymous":false},{"type":"event","name":"ApprovalForAll","inputs":[{"name":"owner","type":"address","indexed":true,"internalType":"address"},{"name":"operator","type":"address","indexed":true,"internalType":"address"},{"name":"approved","type":"bool","indexed":false,"internalType":"bool"}],"anonymous":false},{"type":"event","name":"CollateralDeposited","inputs":[{"name":"company","type":"address","indexed":true,"internalType":"address"},{"name":"amount","type":"uint256","indexed":false,"internalType":"uint256"}],"anonymous":false},{"type":"event","name":"CollateralWithdrawn","inputs":[{"name":"company","type":"address","indexed":true,"internalType":"address"},{"name":"amount","type":"uint256","indexed":false,"internalType":"uint256"}],"anonymous":false},{"type":"event","name":"InvoiceNFTCreated","inputs":[{"name":"tokenId","type":"uint256","indexed":true,"internalType":"uint256"},{"name":"totalAmount","type":"uint256","indexed":false,"internalType":"uint256"},{"name":"tokenPrice","type":"uint256","indexed":false,"internalType":"uint256"},{"name":"tokensTotal","type":"uint256","indexed":false,"internalType":"uint256"},{"name":"ipfsDocumentHash","type":"string","indexed":false,"internalType":"string"}],"anonymous":false},{"type":"event","name":"InvoiceNFTPurchased","inputs":[{"name":"tokenId","type":"uint256","indexed":true,"internalType":"uint256"},{"name":"buyer","type":"address","indexed":true,"internalType":"address"},{"name":"tokenAmount","type":"uint256","indexed":false,"internalType":"uint256"},{"name":"paymentAmount","type":"uint256","indexed":false,"internalType":"uint256"}],"anonymous":false},{"type":"event","name":"OwnershipTransferred","inputs":[{"name":"previousOwner","type":"address","indexed":true,"internalType":"address"},{"name":"newOwner","type":"address","indexed":true,"internalType":"address"}],"anonymous":false},{"type":"event","name":"TokensRedeemed","inputs":[{"name":"tokenId","type":"uint256","indexed":true,"internalType":"uint256"},{"name":"user","type":"address","indexed":true,"internalType":"address"},{"name":"tokenAmount","type":"uint256","indexed":false,"internalType":"uint256"},{"name":"redemptionAmount","type":"uint256","indexed":false,"internalType":"uint256"}],"anonymous":false},{"type":"event","name":"Transfer","inputs":[{"name":"from","type":"address","indexed":true,"internalType":"address"},{"name":"to","type":"address","indexed":true,"internalType":"address"},{"name":"tokenId","type":"uint256","indexed":true,"internalType":"uint256"}],"anonymous":false},{"type":"error","name":"ERC721IncorrectOwner","inputs":[{"name":"sender","type":"address","internalType":"address"},{"name":"tokenId","type":"uint256","internalType":"uint256"},{"name":"owner","type":"address","internalType":"address"}]},{"type":"error","name":"ERC721InsufficientApproval","inputs":[{"name":"operator","type":"address","internalType":"address"},{"name":"tokenId","type":"uint256","internalType":"uint256"}]},{"type":"error","name":"ERC721InvalidApprover","inputs":[{"name":"approver","type":"address","internalType":"address"}]},{"type":"error","name":"ERC721InvalidOperator","inputs":[{"name":"operator","type":"address","internalType":"address"}]},{"type":"error","name":"ERC721InvalidOwner","inputs":[{"name":"owner","type":"address","internalType":"address"}]},{"type":"error","name":"ERC721InvalidReceiver","inputs":[{"name":"receiver","type":"address","internalType":"address"}]},{"type":"error","name":"ERC721InvalidSender","inputs":[{"name":"sender","type":"address","internalType":"address"}]},{"type":"error","name":"ERC721NonexistentToken","inputs":[{"name":"tokenId","type":"uint256","internalType":"uint256"}]},{"type":"error","name":"OwnableInvalidOwner","inputs":[{"name":"owner","type":"address","internalType":"address"}]},{"type":"error","name":"OwnableUnauthorizedAccount","inputs":[{"name":"account","type":"address","internalType":"address"}]},{"type":"error","name":"ReentrancyGuardReentrantCall","inputs":[]}],"bytecode":{"object":"0x608060405234801561000f575f5ffd5b50336040518060400160405280601381526020017f496e766f69636546696e616e63696e674e4654000000000000000000000000008152506040518060400160405280600381526020016224a32760e91b815250815f908161007191906101ab565b50600161007e82826101ab565b5050506001600160a01b0381166100ae57604051631e4fbdf760e01b81525f600482015260240160405180910390fd5b6100b7816100c2565b506001600755610265565b600680546001600160a01b038381166001600160a01b0319831681179093556040519116919082907f8be0079c531659141344cd1fd0a4f28419497f9722a3daafe3b4186f6b6457e0905f90a35050565b634e487b7160e01b5f52604160045260245ffd5b600181811c9082168061013b57607f821691505b60208210810361015957634e487b7160e01b5f52602260045260245ffd5b50919050565b601f8211156101a657805f5260205f20601f840160051c810160208510156101845750805b601f840160051c820191505b818110156101a3575f8155600101610190565b50505b505050565b81516001600160401b038111156101c4576101c4610113565b6101d8816101d28454610127565b8461015f565b6020601f82116001811461020a575f83156101f35750848201515b5f19600385901b1c1916600184901b1784556101a3565b5f84815260208120601f198516915b828110156102395787850151825560209485019460019092019101610219565b508482101561025657868401515f19600387901b60f8161c191681555b50505050600190811b01905550565b6124cf806102725f395ff3fe608060405260043610610141575f3560e01c806370a08231116100af578063b88d4fde1161006b578063b88d4fde14610394578063bb24b732146103b3578063c87b56dd146103d2578063e985e9c5146103f1578063f10285c414610410578063f2fde38b1461042357005b806370a08231146102fe578063715018a61461031d5780638da5cb5b1461033157806395d89b411461034e578063a22cb46514610362578063ad4451a31461038157005b806342842e0e116100fe57806342842e0e146102465780634e6d14051461026557806356384cfb146102995780636112fe2e146102b85780636352211e146102d75780636f758140146102f657005b806301ffc9a71461014357806306fdde0314610177578063081812fc14610198578063095ea7b3146101cf57806323b872dd146101ee578063366cbd521461020d575b005b34801561014e575f5ffd5b5061016261015d366004611e87565b610442565b60405190151581526020015b60405180910390f35b348015610182575f5ffd5b5061018b610493565b60405161016e9190611ed0565b3480156101a3575f5ffd5b506101b76101b2366004611ee2565b610522565b6040516001600160a01b03909116815260200161016e565b3480156101da575f5ffd5b506101416101e9366004611f14565b610549565b3480156101f9575f5ffd5b50610141610208366004611f3c565b610558565b348015610218575f5ffd5b50610238610227366004611f76565b60096020525f908152604090205481565b60405190815260200161016e565b348015610251575f5ffd5b50610141610260366004611f3c565b6105e6565b348015610270575f5ffd5b5061028461027f366004611ee2565b610605565b60405161016e99989796959493929190611f8f565b3480156102a4575f5ffd5b506101416102b3366004611ee2565b6106e7565b3480156102c3575f5ffd5b506101416102d2366004611ee2565b6108d7565b3480156102e2575f5ffd5b506101b76102f1366004611ee2565b610a6a565b610141610a74565b348015610309575f5ffd5b50610238610318366004611f76565b610b44565b348015610328575f5ffd5b50610141610b89565b34801561033c575f5ffd5b506006546001600160a01b03166101b7565b348015610359575f5ffd5b5061018b610b9a565b34801561036d575f5ffd5b5061014161037c366004611fed565b610ba9565b61014161038f366004612026565b610bb4565b34801561039f575f5ffd5b506101416103ae36600461205a565b610e94565b3480156103be575f5ffd5b506102386103cd366004611f76565b610eac565b3480156103dd575f5ffd5b5061018b6103ec366004611ee2565b61109d565b3480156103fc575f5ffd5b5061016261040b366004612137565b61110e565b61014161041e366004612168565b61113b565b34801561042e575f5ffd5b5061014161043d366004611f76565b611598565b5f6001600160e01b031982166380ac58cd60e01b148061047257506001600160e01b03198216635b5e139f60e01b145b8061048d57506301ffc9a760e01b6001600160e01b03198316145b92915050565b60605f80546104a190612205565b80601f01602080910402602001604051908101604052809291908181526020018280546104cd90612205565b80156105185780601f106104ef57610100808354040283529160200191610518565b820191905f5260205f20905b8154815290600101906020018083116104fb57829003601f168201915b5050505050905090565b5f61052c826115d2565b505f828152600460205260409020546001600160a01b031661048d565b61055482823361160a565b5050565b6001600160a01b03821661058657604051633250574960e11b81525f60048201526024015b60405180910390fd5b5f610592838333611617565b9050836001600160a01b0316816001600160a01b0316146105e0576040516364283d7b60e01b81526001600160a01b038086166004830152602482018490528216604482015260640161057d565b50505050565b61060083838360405180602001604052805f815250610e94565b505050565b600860208190525f918252604090912080546001820154600283015460038401546004850154600586015460068701546007880154988801805497999698959794966001600160a01b0390941695929460ff90921693929161066690612205565b80601f016020809104026020016040519081016040528092919081815260200182805461069290612205565b80156106dd5780601f106106b4576101008083540402835291602001916106dd565b820191905f5260205f20905b8154815290600101906020018083116106c057829003601f168201915b5050505050905089565b6106ef611709565b5f81815260086020526040902060038101544210156107495760405162461bcd60e51b8152602060048201526016602482015275125b9d9bda58d9481b9bdd081b585d1d5c99481e595d60521b604482015260640161057d565b5f8160010154826002015461075e9190612251565b9050804710156107b05760405162461bcd60e51b815260206004820152601c60248201527f496e73756666696369656e742066756e647320746f2072656465656d00000000604482015260640161057d565b60068201805460ff1916905560048201546107d4906001600160a01b031684611733565b60048201546040515f916001600160a01b03169083908381818185875af1925050503d805f8114610820576040519150601f19603f3d011682016040523d82523d5f602084013e610825565b606091505b50509050806108765760405162461bcd60e51b815260206004820152601a60248201527f526564656d7074696f6e207472616e73666572206661696c6564000000000000604482015260640161057d565b6004830154600284015460408051918252602082018590526001600160a01b039092169186917f887d2394d1ad324612a23b35bba07e9d9d2a3401acf775233b363f69e9caacf9910160405180910390a35050506108d46001600755565b50565b6108df611709565b335f9081526009602052604090205481111561093d5760405162461bcd60e51b815260206004820152601860248201527f496e73756666696369656e7420636f6c6c61746572616c210000000000000000604482015260640161057d565b5f61094733610eac565b335f908152600960205260409020549091508290610966908390612268565b10156109dc576040805162461bcd60e51b81526020600482015260248101919091527f43616e6e6f74207769746864726177206c6f636b656420636f6c6c617465726160448201527f6c2e20496e73756666696369656e74206672656520636f6c6c61746572616c21606482015260840161057d565b335f90815260096020526040812080548492906109fa908490612268565b9091555050604051339083156108fc029084905f818181858888f19350505050158015610a29573d5f5f3e3d5ffd5b5060405182815233907fc30fcfbcaac9e0deffa719714eaa82396ff506a0d0d0eebe170830177288715d9060200160405180910390a2506108d46001600755565b5f61048d826115d2565b610a7c611709565b5f3411610ae05760405162461bcd60e51b815260206004820152602c60248201527f4465706f736974656420636f6c6c61746572616c206d7573742062652067726560448201526b61746572207468616e20302160a01b606482015260840161057d565b335f9081526009602052604081208054349290610afe90849061227b565b909155505060405134815233907fd7243f6f8212d5188fd054141cf6ea89cfc0d91facb8c3afe2f88a13584801429060200160405180910390a2610b426001600755565b565b5f6001600160a01b038216610b6e576040516322718ad960e21b81525f600482015260240161057d565b506001600160a01b03165f9081526003602052604090205490565b610b916117ed565b610b425f61181a565b6060600180546104a190612205565b61055433838361186b565b610bbc611709565b5f82815260086020526040902060048101546001600160a01b0316610c1c5760405162461bcd60e51b8152602060048201526016602482015275125b9d9bda58d948191bd95cc81b9bdd08195e1a5cdd60521b604482015260640161057d565b600681015460ff16610c685760405162461bcd60e51b8152602060048201526015602482015274496e766f696365206973206e6f742061637469766560581b604482015260640161057d565b5f8211610cc35760405162461bcd60e51b815260206004820152602360248201527f546f6b656e20616d6f756e74206d75737420626520677265617465722074686160448201526206e20360ec1b606482015260840161057d565b8060070154821115610d175760405162461bcd60e51b815260206004820152601d60248201527f496e73756666696369656e7420746f6b656e7320617661696c61626c65000000604482015260640161057d565b6001810154610d269083612251565b3414610d745760405162461bcd60e51b815260206004820152601860248201527f496e636f7272656374207061796d656e7420616d6f756e740000000000000000604482015260640161057d565b81816007015f828254610d879190612268565b90915550610d989050303385611909565b60048101546040515f916001600160a01b03169034908381818185875af1925050503d805f8114610de4576040519150601f19603f3d011682016040523d82523d5f602084013e610de9565b606091505b5050905080610e4c5760405162461bcd60e51b815260206004820152602960248201527f4661696c656420746f207472616e73666572207061796d656e7420746f2074686044820152686520636f6d70616e7960b81b606482015260840161057d565b60408051848152346020820152339186917f74790901613702895c64b10fafe7fefaf0df7a4d83bf6e30c8510e6c43771c4e910160405180910390a350506105546001600755565b610e9f848484610558565b6105e033858585856119b6565b6001600160a01b0381165f908152600a60209081526040808320805482518185028101850190935280835284938493929190830182828015610f0b57602002820191905f5260205f20905b815481526020019060010190808311610ef7575b509394505f93505050505b8151811015611094575f60085f848481518110610f3557610f3561228e565b60209081029190910181015182528181019290925260409081015f20815161012081018352815481526001820154938101939093526002810154918301919091526003810154606083015260048101546001600160a01b03166080830152600581015460a0830152600681015460ff16151560c0830152600781015460e083015260088101805461010084019190610fcc90612205565b80601f0160208091040260200160405190810160405280929190818152602001828054610ff890612205565b80156110435780601f1061101a57610100808354040283529160200191611043565b820191905f5260205f20905b81548152906001019060200180831161102657829003601f168201915b5050505050815250509050856001600160a01b031681608001516001600160a01b031614801561107457508060c001515b1561108b5760a0810151611088908561227b565b93505b50600101610f16565b50909392505050565b60606110a8826115d2565b505f6110be60408051602081019091525f815290565b90505f8151116110dc5760405180602001604052805f815250611107565b806110e684611ade565b6040516020016110f79291906122b9565b6040516020818303038152906040525b9392505050565b6001600160a01b039182165f90815260056020908152604080832093909416825291909152205460ff1690565b611143611709565b5f86116111a45760405162461bcd60e51b815260206004820152602960248201527f416d6f756e74206f6620696e766f696365206d7573742062652067726561746560448201526839103a3430b710181760b91b606482015260840161057d565b5f85116111ff5760405162461bcd60e51b815260206004820152602360248201527f546f6b656e207072696365206d7573742062652067726561746572207468616e60448201526210181760e91b606482015260840161057d565b5f841161125f5760405162461bcd60e51b815260206004820152602860248201527f416d6f756e74206f6620746f6b656e73206d7573742062652067726561746572604482015267103a3430b710181760c11b606482015260840161057d565b4283116112bd5760405162461bcd60e51b815260206004820152602660248201527f4d6174757269747920646174652073686f756c6420626520696e2074686520666044820152653aba3ab9329760d11b606482015260840161057d565b806113035760405162461bcd60e51b815260206004820152601660248201527524a82329903430b9b41034b9903932b8bab4b932b21760511b604482015260640161057d565b5f60646113108688612251565b61131b906050612251565b61132591906122cd565b90505f61133133610eac565b335f908152600960205260408120549192509061134f908390612268565b9050828110156113a15760405162461bcd60e51b815260206004820152601f60248201527f496e73756666696369656e7420636f6d70616e7920636f6c6c61746572616c00604482015260640161057d565b335f90815260096020526040812080548592906113bf908490612268565b925050819055505f6040518061012001604052808b81526020018a8152602001898152602001888152602001336001600160a01b0316815260200185815260200160011515815260200189815260200187878080601f0160208091040260200160405190810160405280939291908181526020018383808284375f9201829052509390945250508d815260086020818152604092839020855181559085015160018201559184015160028301556060840151600383015560808401516004830180546001600160a01b0319166001600160a01b0390921691909117905560a0840151600583015560c084015160068301805460ff191691151591909117905560e0840151600783015561010084015193945084939192508201906114e39082612330565b505f9150505b8881101561151f575f816115008e620f4240612251565b61150a919061227b565b90506115163382611b6e565b506001016114e9565b50335f908152600a60209081526040822080546001810182559083529120018b90558a7fe6c0d6151dca6eaac8d695bd183c90af991e4ac7c2708f925039a44ac7fde47c8b8b8b8a8a6040516115799594939291906123eb565b60405180910390a25050505061158f6001600755565b50505050505050565b6115a06117ed565b6001600160a01b0381166115c957604051631e4fbdf760e01b81525f600482015260240161057d565b6108d48161181a565b5f818152600260205260408120546001600160a01b03168061048d57604051637e27328960e01b81526004810184905260240161057d565b6106008383836001611bcf565b5f828152600260205260408120546001600160a01b039081169083161561164357611643818486611cd3565b6001600160a01b0381161561167d5761165e5f855f5f611bcf565b6001600160a01b0381165f90815260036020526040902080545f190190555b6001600160a01b038516156116ab576001600160a01b0385165f908152600360205260409020805460010190555b5f8481526002602052604080822080546001600160a01b0319166001600160a01b0389811691821790925591518793918516917fddf252ad1be2c89b69c2b068fc378daa952ba7f163c4a11628f55a4df523b3ef91a4949350505050565b60026007540361172c57604051633ee5aeb560e01b815260040160405180910390fd5b6002600755565b6001600160a01b0382165f908152600a60205260408120905b81548110156105e057828282815481106117685761176861228e565b905f5260205f200154036117e5578154829061178690600190612268565b815481106117965761179661228e565b905f5260205f2001548282815481106117b1576117b161228e565b905f5260205f200181905550818054806117cd576117cd61242e565b600190038181905f5260205f20015f905590556105e0565b60010161174c565b6006546001600160a01b03163314610b425760405163118cdaa760e01b815233600482015260240161057d565b600680546001600160a01b038381166001600160a01b0319831681179093556040519116919082907f8be0079c531659141344cd1fd0a4f28419497f9722a3daafe3b4186f6b6457e0905f90a35050565b6001600160a01b03821661189d57604051630b61174360e31b81526001600160a01b038316600482015260240161057d565b6001600160a01b038381165f81815260056020908152604080832094871680845294825291829020805460ff191686151590811790915591519182527f17307eab39ab6107e8899845ad3d59bd9653f200f220920489ca2b5937696c31910160405180910390a3505050565b6001600160a01b03821661193257604051633250574960e11b81525f600482015260240161057d565b5f61193e83835f611617565b90506001600160a01b03811661196a57604051637e27328960e01b81526004810183905260240161057d565b836001600160a01b0316816001600160a01b0316146105e0576040516364283d7b60e01b81526001600160a01b038086166004830152602482018490528216604482015260640161057d565b6001600160a01b0383163b15611ad757604051630a85bd0160e11b81526001600160a01b0384169063150b7a02906119f8908890889087908790600401612442565b6020604051808303815f875af1925050508015611a32575060408051601f3d908101601f19168201909252611a2f9181019061247e565b60015b611a99573d808015611a5f576040519150601f19603f3d011682016040523d82523d5f602084013e611a64565b606091505b5080515f03611a9157604051633250574960e11b81526001600160a01b038516600482015260240161057d565b805181602001fd5b6001600160e01b03198116630a85bd0160e11b14611ad557604051633250574960e11b81526001600160a01b038516600482015260240161057d565b505b5050505050565b60605f611aea83611d37565b60010190505f8167ffffffffffffffff811115611b0957611b09612046565b6040519080825280601f01601f191660200182016040528015611b33576020820181803683370190505b5090508181016020015b5f19016f181899199a1a9b1b9c1cb0b131b232b360811b600a86061a8153600a8504945084611b3d57509392505050565b6001600160a01b038216611b9757604051633250574960e11b81525f600482015260240161057d565b5f611ba383835f611617565b90506001600160a01b03811615610600576040516339e3563760e11b81525f600482015260240161057d565b8080611be357506001600160a01b03821615155b15611ca4575f611bf2846115d2565b90506001600160a01b03831615801590611c1e5750826001600160a01b0316816001600160a01b031614155b8015611c315750611c2f818461110e565b155b15611c5a5760405163a9fbf51f60e01b81526001600160a01b038416600482015260240161057d565b8115611ca25783856001600160a01b0316826001600160a01b03167f8c5be1e5ebec7d5bd14f71427d1e84f3dd0314c0f7b2291e5b200ac8c7c3b92560405160405180910390a45b505b50505f90815260046020526040902080546001600160a01b0319166001600160a01b0392909216919091179055565b611cde838383611e0e565b610600576001600160a01b038316611d0c57604051637e27328960e01b81526004810182905260240161057d565b60405163177e802f60e01b81526001600160a01b03831660048201526024810182905260440161057d565b5f8072184f03e93ff9f4daa797ed6e38ed64bf6a1f0160401b8310611d755772184f03e93ff9f4daa797ed6e38ed64bf6a1f0160401b830492506040015b6d04ee2d6d415b85acef81000000008310611da1576d04ee2d6d415b85acef8100000000830492506020015b662386f26fc100008310611dbf57662386f26fc10000830492506010015b6305f5e1008310611dd7576305f5e100830492506008015b6127108310611deb57612710830492506004015b60648310611dfd576064830492506002015b600a831061048d5760010192915050565b5f6001600160a01b03831615801590611e6a5750826001600160a01b0316846001600160a01b03161480611e475750611e47848461110e565b80611e6a57505f828152600460205260409020546001600160a01b038481169116145b949350505050565b6001600160e01b0319811681146108d4575f5ffd5b5f60208284031215611e97575f5ffd5b813561110781611e72565b5f81518084528060208401602086015e5f602082860101526020601f19601f83011685010191505092915050565b602081525f6111076020830184611ea2565b5f60208284031215611ef2575f5ffd5b5035919050565b80356001600160a01b0381168114611f0f575f5ffd5b919050565b5f5f60408385031215611f25575f5ffd5b611f2e83611ef9565b946020939093013593505050565b5f5f5f60608486031215611f4e575f5ffd5b611f5784611ef9565b9250611f6560208501611ef9565b929592945050506040919091013590565b5f60208284031215611f86575f5ffd5b61110782611ef9565b89815288602082015287604082015286606082015260018060a01b03861660808201528460a082015283151560c08201528260e08201526101206101008201525f611fde610120830184611ea2565b9b9a5050505050505050505050565b5f5f60408385031215611ffe575f5ffd5b61200783611ef9565b91506020830135801515811461201b575f5ffd5b809150509250929050565b5f5f60408385031215612037575f5ffd5b50508035926020909101359150565b634e487b7160e01b5f52604160045260245ffd5b5f5f5f5f6080858703121561206d575f5ffd5b61207685611ef9565b935061208460208601611ef9565b925060408501359150606085013567ffffffffffffffff8111156120a6575f5ffd5b8501601f810187136120b6575f5ffd5b803567ffffffffffffffff8111156120d0576120d0612046565b604051601f8201601f19908116603f0116810167ffffffffffffffff811182821017156120ff576120ff612046565b604052818152828201602001891015612116575f5ffd5b816020840160208301375f6020838301015280935050505092959194509250565b5f5f60408385031215612148575f5ffd5b61215183611ef9565b915061215f60208401611ef9565b90509250929050565b5f5f5f5f5f5f5f60c0888a03121561217e575f5ffd5b873596506020880135955060408801359450606088013593506080880135925060a088013567ffffffffffffffff8111156121b7575f5ffd5b8801601f81018a136121c7575f5ffd5b803567ffffffffffffffff8111156121dd575f5ffd5b8a60208284010111156121ee575f5ffd5b602082019350809250505092959891949750929550565b600181811c9082168061221957607f821691505b60208210810361223757634e487b7160e01b5f52602260045260245ffd5b50919050565b634e487b7160e01b5f52601160045260245ffd5b808202811582820484141761048d5761048d61223d565b8181038181111561048d5761048d61223d565b8082018082111561048d5761048d61223d565b634e487b7160e01b5f52603260045260245ffd5b5f81518060208401855e5f93019283525090919050565b5f611e6a6122c783866122a2565b846122a2565b5f826122e757634e487b7160e01b5f52601260045260245ffd5b500490565b601f82111561060057805f5260205f20601f840160051c810160208510156123115750805b601f840160051c820191505b81811015611ad7575f815560010161231d565b815167ffffffffffffffff81111561234a5761234a612046565b61235e816123588454612205565b846122ec565b6020601f821160018114612390575f83156123795750848201515b5f19600385901b1c1916600184901b178455611ad7565b5f84815260208120601f198516915b828110156123bf578785015182556020948501946001909201910161239f565b50848210156123dc57868401515f19600387901b60f8161c191681555b50505050600190811b01905550565b85815284602082015283604082015260806060820152816080820152818360a08301375f81830160a090810191909152601f909201601f19160101949350505050565b634e487b7160e01b5f52603160045260245ffd5b6001600160a01b03858116825284166020820152604081018390526080606082018190525f9061247490830184611ea2565b9695505050505050565b5f6020828403121561248e575f5ffd5b815161110781611e7256fea2646970667358221220436637186f143165e049d0bf3e6ca1cfde48041e07ba947ff5efeecda1abb8c064736f6c634300081c0033","linkReferences":{}},"methodIdentifiers":{"approve(address,uint256)":"095ea7b3","balanceOf(address)":"70a08231","calculateLockedCollateral(address)":"bb24b732","companyCollateral(address)":"366cbd52","createInvoiceNFT(uint256,uint256,uint256,uint256,uint256,string)":"f10285c4","depositCollateral()":"6f758140","getApproved(uint256)":"081812fc","invoices(uint256)":"4e6d1405","isApprovedForAll(address,address)":"e985e9c5","name()":"06fdde03","owner()":"8da5cb5b","ownerOf(uint256)":"6352211e","purchaseNFT(uint256,uint256)":"ad4451a3","redeemNFTTokens(uint256)":"56384cfb","renounceOwnership()":"715018a6","safeTransferFrom(address,address,uint256)":"42842e0e","safeTransferFrom(address,address,uint256,bytes)":"b88d4fde","setApprovalForAll(address,bool)":"a22cb465","supportsInterface(bytes4)":"01ffc9a7","symbol()":"95d89b41","tokenURI(uint256)":"c87b56dd","transferFrom(address,address,uint256)":"23b872dd","transferOwnership(address)":"f2fde38b","withdrawCollateral(uint256)":"6112fe2e"},"id":16}